{
	"src/MerkleAirdrop.sol": {
		"MerkleAirdrop": {
			"abi": [
				{
					"inputs": [
						{
							"internalType": "bytes32",
							"name": "_markleRoot",
							"type": "bytes32"
						},
						{
							"internalType": "contract IERC20",
							"name": "_airdropToken",
							"type": "address"
						}
					],
					"stateMutability": "nonpayable",
					"type": "constructor"
				},
				{
					"inputs": [],
					"name": "MerkleAirdrop__AlreadyClaimed",
					"type": "error"
				},
				{
					"inputs": [],
					"name": "MerkleAirdrop__MerkleProofNotValid",
					"type": "error"
				},
				{
					"inputs": [
						{
							"internalType": "address",
							"name": "token",
							"type": "address"
						}
					],
					"name": "SafeERC20FailedOperation",
					"type": "error"
				},
				{
					"anonymous": false,
					"inputs": [
						{
							"indexed": false,
							"internalType": "address",
							"name": "account",
							"type": "address"
						},
						{
							"indexed": false,
							"internalType": "uint256",
							"name": "amount",
							"type": "uint256"
						}
					],
					"name": "Claim",
					"type": "event"
				},
				{
					"inputs": [
						{
							"internalType": "address",
							"name": "_account",
							"type": "address"
						},
						{
							"internalType": "uint256",
							"name": "_amount",
							"type": "uint256"
						},
						{
							"internalType": "bytes32[]",
							"name": "markleProof",
							"type": "bytes32[]"
						}
					],
					"name": "claim",
					"outputs": [],
					"stateMutability": "nonpayable",
					"type": "function"
				},
				{
					"inputs": [
						{
							"internalType": "uint256",
							"name": "",
							"type": "uint256"
						}
					],
					"name": "claimers",
					"outputs": [
						{
							"internalType": "address",
							"name": "",
							"type": "address"
						}
					],
					"stateMutability": "view",
					"type": "function"
				},
				{
					"inputs": [],
					"name": "getAirdroptoken",
					"outputs": [
						{
							"internalType": "contract IERC20",
							"name": "",
							"type": "address"
						}
					],
					"stateMutability": "view",
					"type": "function"
				},
				{
					"inputs": [],
					"name": "getMerkleRoot",
					"outputs": [
						{
							"internalType": "bytes32",
							"name": "",
							"type": "bytes32"
						}
					],
					"stateMutability": "view",
					"type": "function"
				},
				{
					"inputs": [
						{
							"internalType": "address",
							"name": "",
							"type": "address"
						}
					],
					"name": "s_hasClaimed",
					"outputs": [
						{
							"internalType": "bool",
							"name": "",
							"type": "bool"
						}
					],
					"stateMutability": "view",
					"type": "function"
				}
			],
			"devdoc": {
				"errors": {
					"SafeERC20FailedOperation(address)": [
						{
							"details": "An operation with an ERC-20 token failed."
						}
					]
				},
				"kind": "dev",
				"methods": {},
				"version": 1
			},
			"evm": {
				"assembly": "    /* \"src/MerkleAirdrop.sol\":242:1584  contract MerkleAirdrop {... */\n  mstore(0x40, 0xc0)\n    /* \"src/MerkleAirdrop.sol\":658:798  constructor(bytes32 _markleRoot, IERC20 _airdropToken){... */\n  callvalue\n  dup1\n  iszero\n  tag_1\n  jumpi\n  revert(0x00, 0x00)\ntag_1:\n  pop\n  mload(0x40)\n  sub(codesize, bytecodeSize)\n  dup1\n  bytecodeSize\n  dup4\n  codecopy\n  dup2\n  dup2\n  add\n  0x40\n  mstore\n  dup2\n  add\n  swap1\n  tag_2\n  swap2\n  swap1\n  tag_3\n  jump\t// in\ntag_2:\n    /* \"src/MerkleAirdrop.sol\":738:749  _markleRoot */\n  dup2\n    /* \"src/MerkleAirdrop.sol\":723:749  i_markleRoot = _markleRoot */\n  0x80\n  dup2\n  dup2\n  mstore\n  pop\n  pop\n    /* \"src/MerkleAirdrop.sol\":777:790  _airdropToken */\n  dup1\n    /* \"src/MerkleAirdrop.sol\":760:790  i_airdropToken = _airdropToken */\n  0xffffffffffffffffffffffffffffffffffffffff\n  and\n  0xa0\n  dup2\n  0xffffffffffffffffffffffffffffffffffffffff\n  and\n  dup2\n  mstore\n  pop\n  pop\n    /* \"src/MerkleAirdrop.sol\":658:798  constructor(bytes32 _markleRoot, IERC20 _airdropToken){... */\n  pop\n  pop\n    /* \"src/MerkleAirdrop.sol\":242:1584  contract MerkleAirdrop {... */\n  jump(tag_6)\n    /* \"#utility.yul\":88:205   */\ntag_8:\n    /* \"#utility.yul\":197:198   */\n  0x00\n    /* \"#utility.yul\":194:195   */\n  0x00\n    /* \"#utility.yul\":187:199   */\n  revert\n    /* \"#utility.yul\":334:411   */\ntag_10:\n    /* \"#utility.yul\":371:378   */\n  0x00\n    /* \"#utility.yul\":400:405   */\n  dup2\n    /* \"#utility.yul\":389:405   */\n  swap1\n  pop\n    /* \"#utility.yul\":334:411   */\n  swap2\n  swap1\n  pop\n  jump\t// out\n    /* \"#utility.yul\":417:539   */\ntag_11:\n    /* \"#utility.yul\":490:514   */\n  tag_24\n    /* \"#utility.yul\":508:513   */\n  dup2\n    /* \"#utility.yul\":490:514   */\n  tag_10\n  jump\t// in\ntag_24:\n    /* \"#utility.yul\":483:488   */\n  dup2\n    /* \"#utility.yul\":480:515   */\n  eq\n    /* \"#utility.yul\":470:533   */\n  tag_25\n  jumpi\n    /* \"#utility.yul\":529:530   */\n  0x00\n    /* \"#utility.yul\":526:527   */\n  0x00\n    /* \"#utility.yul\":519:531   */\n  revert\n    /* \"#utility.yul\":470:533   */\ntag_25:\n    /* \"#utility.yul\":417:539   */\n  pop\n  jump\t// out\n    /* \"#utility.yul\":545:688   */\ntag_12:\n    /* \"#utility.yul\":602:607   */\n  0x00\n    /* \"#utility.yul\":633:639   */\n  dup2\n    /* \"#utility.yul\":627:640   */\n  mload\n    /* \"#utility.yul\":618:640   */\n  swap1\n  pop\n    /* \"#utility.yul\":649:682   */\n  tag_27\n    /* \"#utility.yul\":676:681   */\n  dup2\n    /* \"#utility.yul\":649:682   */\n  tag_11\n  jump\t// in\ntag_27:\n    /* \"#utility.yul\":545:688   */\n  swap3\n  swap2\n  pop\n  pop\n  jump\t// out\n    /* \"#utility.yul\":694:820   */\ntag_13:\n    /* \"#utility.yul\":731:738   */\n  0x00\n    /* \"#utility.yul\":771:813   */\n  0xffffffffffffffffffffffffffffffffffffffff\n    /* \"#utility.yul\":764:769   */\n  dup3\n    /* \"#utility.yul\":760:814   */\n  and\n    /* \"#utility.yul\":749:814   */\n  swap1\n  pop\n    /* \"#utility.yul\":694:820   */\n  swap2\n  swap1\n  pop\n  jump\t// out\n    /* \"#utility.yul\":826:922   */\ntag_14:\n    /* \"#utility.yul\":863:870   */\n  0x00\n    /* \"#utility.yul\":892:916   */\n  tag_30\n    /* \"#utility.yul\":910:915   */\n  dup3\n    /* \"#utility.yul\":892:916   */\n  tag_13\n  jump\t// in\ntag_30:\n    /* \"#utility.yul\":881:916   */\n  swap1\n  pop\n    /* \"#utility.yul\":826:922   */\n  swap2\n  swap1\n  pop\n  jump\t// out\n    /* \"#utility.yul\":928:1038   */\ntag_15:\n    /* \"#utility.yul\":979:986   */\n  0x00\n    /* \"#utility.yul\":1008:1032   */\n  tag_32\n    /* \"#utility.yul\":1026:1031   */\n  dup3\n    /* \"#utility.yul\":1008:1032   */\n  tag_14\n  jump\t// in\ntag_32:\n    /* \"#utility.yul\":997:1032   */\n  swap1\n  pop\n    /* \"#utility.yul\":928:1038   */\n  swap2\n  swap1\n  pop\n  jump\t// out\n    /* \"#utility.yul\":1044:1194   */\ntag_16:\n    /* \"#utility.yul\":1131:1169   */\n  tag_34\n    /* \"#utility.yul\":1163:1168   */\n  dup2\n    /* \"#utility.yul\":1131:1169   */\n  tag_15\n  jump\t// in\ntag_34:\n    /* \"#utility.yul\":1124:1129   */\n  dup2\n    /* \"#utility.yul\":1121:1170   */\n  eq\n    /* \"#utility.yul\":1111:1188   */\n  tag_35\n  jumpi\n    /* \"#utility.yul\":1184:1185   */\n  0x00\n    /* \"#utility.yul\":1181:1182   */\n  0x00\n    /* \"#utility.yul\":1174:1186   */\n  revert\n    /* \"#utility.yul\":1111:1188   */\ntag_35:\n    /* \"#utility.yul\":1044:1194   */\n  pop\n  jump\t// out\n    /* \"#utility.yul\":1200:1371   */\ntag_17:\n    /* \"#utility.yul\":1271:1276   */\n  0x00\n    /* \"#utility.yul\":1302:1308   */\n  dup2\n    /* \"#utility.yul\":1296:1309   */\n  mload\n    /* \"#utility.yul\":1287:1309   */\n  swap1\n  pop\n    /* \"#utility.yul\":1318:1365   */\n  tag_37\n    /* \"#utility.yul\":1359:1364   */\n  dup2\n    /* \"#utility.yul\":1318:1365   */\n  tag_16\n  jump\t// in\ntag_37:\n    /* \"#utility.yul\":1200:1371   */\n  swap3\n  swap2\n  pop\n  pop\n  jump\t// out\n    /* \"#utility.yul\":1377:1912   */\ntag_3:\n    /* \"#utility.yul\":1470:1476   */\n  0x00\n    /* \"#utility.yul\":1478:1484   */\n  0x00\n    /* \"#utility.yul\":1527:1529   */\n  0x40\n    /* \"#utility.yul\":1515:1524   */\n  dup4\n    /* \"#utility.yul\":1506:1513   */\n  dup6\n    /* \"#utility.yul\":1502:1525   */\n  sub\n    /* \"#utility.yul\":1498:1530   */\n  slt\n    /* \"#utility.yul\":1495:1614   */\n  iszero\n  tag_39\n  jumpi\n    /* \"#utility.yul\":1533:1612   */\n  tag_40\n  tag_8\n  jump\t// in\ntag_40:\n    /* \"#utility.yul\":1495:1614   */\ntag_39:\n    /* \"#utility.yul\":1653:1654   */\n  0x00\n    /* \"#utility.yul\":1678:1742   */\n  tag_41\n    /* \"#utility.yul\":1734:1741   */\n  dup6\n    /* \"#utility.yul\":1725:1731   */\n  dup3\n    /* \"#utility.yul\":1714:1723   */\n  dup7\n    /* \"#utility.yul\":1710:1732   */\n  add\n    /* \"#utility.yul\":1678:1742   */\n  tag_12\n  jump\t// in\ntag_41:\n    /* \"#utility.yul\":1668:1742   */\n  swap3\n  pop\n    /* \"#utility.yul\":1624:1752   */\n  pop\n    /* \"#utility.yul\":1791:1793   */\n  0x20\n    /* \"#utility.yul\":1817:1895   */\n  tag_42\n    /* \"#utility.yul\":1887:1894   */\n  dup6\n    /* \"#utility.yul\":1878:1884   */\n  dup3\n    /* \"#utility.yul\":1867:1876   */\n  dup7\n    /* \"#utility.yul\":1863:1885   */\n  add\n    /* \"#utility.yul\":1817:1895   */\n  tag_17\n  jump\t// in\ntag_42:\n    /* \"#utility.yul\":1807:1895   */\n  swap2\n  pop\n    /* \"#utility.yul\":1762:1905   */\n  pop\n    /* \"#utility.yul\":1377:1912   */\n  swap3\n  pop\n  swap3\n  swap1\n  pop\n  jump\t// out\n    /* \"src/MerkleAirdrop.sol\":242:1584  contract MerkleAirdrop {... */\ntag_6:\n  mload(0x80)\n  mload(0xa0)\n  codecopy(0x00, dataOffset(sub_0), dataSize(sub_0))\n  0x00\n  assignImmutable(\"0xa7c043501f1df2d72a05841133f37ab6c14315034593e4d14429a2cdafe45a7d\")\n  0x00\n  assignImmutable(\"0x7eec76cce4896d02227f0eb4f41a5c901d1a0e9a77ef024c8024ff3e2e1f7280\")\n  return(0x00, dataSize(sub_0))\nstop\n\nsub_0: assembly {\n        /* \"src/MerkleAirdrop.sol\":242:1584  contract MerkleAirdrop {... */\n      mstore(0x40, 0x80)\n      callvalue\n      dup1\n      iszero\n      tag_1\n      jumpi\n      revert(0x00, 0x00)\n    tag_1:\n      pop\n      jumpi(tag_2, lt(calldatasize, 0x04))\n      shr(0xe0, calldataload(0x00))\n      dup1\n      0x3d13f874\n      eq\n      tag_3\n      jumpi\n      dup1\n      0x49590657\n      eq\n      tag_4\n      jumpi\n      dup1\n      0x4a5aae37\n      eq\n      tag_5\n      jumpi\n      dup1\n      0x5d70fa3c\n      eq\n      tag_6\n      jumpi\n      dup1\n      0x99ae559d\n      eq\n      tag_7\n      jumpi\n    tag_2:\n      revert(0x00, 0x00)\n        /* \"src/MerkleAirdrop.sol\":806:1372  function claim(address _account, uint256 _amount, bytes32[] calldata markleProof) external {... */\n    tag_3:\n      tag_8\n      0x04\n      dup1\n      calldatasize\n      sub\n      dup2\n      add\n      swap1\n      tag_9\n      swap2\n      swap1\n      tag_10\n      jump\t// in\n    tag_9:\n      tag_11\n      jump\t// in\n    tag_8:\n      stop\n        /* \"src/MerkleAirdrop.sol\":1380:1474  function getMerkleRoot() external view returns (bytes32){... */\n    tag_4:\n      tag_12\n      tag_13\n      jump\t// in\n    tag_12:\n      mload(0x40)\n      tag_14\n      swap2\n      swap1\n      tag_15\n      jump\t// in\n    tag_14:\n      mload(0x40)\n      dup1\n      swap2\n      sub\n      swap1\n      return\n        /* \"src/MerkleAirdrop.sol\":605:649  mapping(address => bool) public s_hasClaimed */\n    tag_5:\n      tag_16\n      0x04\n      dup1\n      calldatasize\n      sub\n      dup2\n      add\n      swap1\n      tag_17\n      swap2\n      swap1\n      tag_18\n      jump\t// in\n    tag_17:\n      tag_19\n      jump\t// in\n    tag_16:\n      mload(0x40)\n      tag_20\n      swap2\n      swap1\n      tag_21\n      jump\t// in\n    tag_20:\n      mload(0x40)\n      dup1\n      swap2\n      sub\n      swap1\n      return\n        /* \"src/MerkleAirdrop.sol\":1482:1579  function getAirdroptoken() external view returns (IERC20){... */\n    tag_6:\n      tag_22\n      tag_23\n      jump\t// in\n    tag_22:\n      mload(0x40)\n      tag_24\n      swap2\n      swap1\n      tag_25\n      jump\t// in\n    tag_24:\n      mload(0x40)\n      dup1\n      swap2\n      sub\n      swap1\n      return\n        /* \"src/MerkleAirdrop.sol\":482:507  address[] public claimers */\n    tag_7:\n      tag_26\n      0x04\n      dup1\n      calldatasize\n      sub\n      dup2\n      add\n      swap1\n      tag_27\n      swap2\n      swap1\n      tag_28\n      jump\t// in\n    tag_27:\n      tag_29\n      jump\t// in\n    tag_26:\n      mload(0x40)\n      tag_30\n      swap2\n      swap1\n      tag_31\n      jump\t// in\n    tag_30:\n      mload(0x40)\n      dup1\n      swap2\n      sub\n      swap1\n      return\n        /* \"src/MerkleAirdrop.sol\":806:1372  function claim(address _account, uint256 _amount, bytes32[] calldata markleProof) external {... */\n    tag_11:\n        /* \"src/MerkleAirdrop.sol\":911:923  s_hasClaimed */\n      0x01\n        /* \"src/MerkleAirdrop.sol\":911:933  s_hasClaimed[_account] */\n      0x00\n        /* \"src/MerkleAirdrop.sol\":924:932  _account */\n      dup6\n        /* \"src/MerkleAirdrop.sol\":911:933  s_hasClaimed[_account] */\n      0xffffffffffffffffffffffffffffffffffffffff\n      and\n      0xffffffffffffffffffffffffffffffffffffffff\n      and\n      dup2\n      mstore\n      0x20\n      add\n      swap1\n      dup2\n      mstore\n      0x20\n      add\n      0x00\n      keccak256\n      0x00\n      swap1\n      sload\n      swap1\n      0x0100\n      exp\n      swap1\n      div\n      0xff\n      and\n        /* \"src/MerkleAirdrop.sol\":908:1000  if(s_hasClaimed[_account]){ ... */\n      iszero\n      tag_33\n      jumpi\n        /* \"src/MerkleAirdrop.sol\":957:988  MerkleAirdrop__AlreadyClaimed() */\n      mload(0x40)\n      0x1ac2170b00000000000000000000000000000000000000000000000000000000\n      dup2\n      mstore\n      0x04\n      add\n      mload(0x40)\n      dup1\n      swap2\n      sub\n      swap1\n      revert\n        /* \"src/MerkleAirdrop.sol\":908:1000  if(s_hasClaimed[_account]){ ... */\n    tag_33:\n        /* \"src/MerkleAirdrop.sol\":1010:1022  bytes32 leaf */\n      0x00\n        /* \"src/MerkleAirdrop.sol\":1069:1077  _account */\n      dup5\n        /* \"src/MerkleAirdrop.sol\":1079:1086  _amount */\n      dup5\n        /* \"src/MerkleAirdrop.sol\":1058:1087  abi.encode(_account, _amount) */\n      add(0x20, mload(0x40))\n      tag_34\n      swap3\n      swap2\n      swap1\n      tag_35\n      jump\t// in\n    tag_34:\n      mload(0x40)\n      0x20\n      dup2\n      dup4\n      sub\n      sub\n      dup2\n      mstore\n      swap1\n      0x40\n      mstore\n        /* \"src/MerkleAirdrop.sol\":1048:1088  keccak256(abi.encode(_account, _amount)) */\n      dup1\n      mload\n      swap1\n      0x20\n      add\n      keccak256\n        /* \"src/MerkleAirdrop.sol\":1035:1089  bytes.concat(keccak256(abi.encode(_account, _amount))) */\n      add(0x20, mload(0x40))\n      tag_36\n      swap2\n      swap1\n      tag_37\n      jump\t// in\n    tag_36:\n      mload(0x40)\n      0x20\n      dup2\n      dup4\n      sub\n      sub\n      dup2\n      mstore\n      swap1\n      0x40\n      mstore\n        /* \"src/MerkleAirdrop.sol\":1025:1090  keccak256(bytes.concat(keccak256(abi.encode(_account, _amount)))) */\n      dup1\n      mload\n      swap1\n      0x20\n      add\n      keccak256\n        /* \"src/MerkleAirdrop.sol\":1010:1090  bytes32 leaf = keccak256(bytes.concat(keccak256(abi.encode(_account, _amount)))) */\n      swap1\n      pop\n        /* \"src/MerkleAirdrop.sol\":1105:1156  MerkleProof.verify(markleProof, i_markleRoot, leaf) */\n      tag_38\n        /* \"src/MerkleAirdrop.sol\":1124:1135  markleProof */\n      dup4\n      dup4\n        /* \"src/MerkleAirdrop.sol\":1105:1156  MerkleProof.verify(markleProof, i_markleRoot, leaf) */\n      dup1\n      dup1\n      0x20\n      mul\n      0x20\n      add\n      mload(0x40)\n      swap1\n      dup2\n      add\n      0x40\n      mstore\n      dup1\n      swap4\n      swap3\n      swap2\n      swap1\n      dup2\n      dup2\n      mstore\n      0x20\n      add\n      dup4\n      dup4\n      0x20\n      mul\n      dup1\n      dup3\n      dup5\n      calldatacopy\n      0x00\n      dup2\n      dup5\n      add\n      mstore\n      not(0x1f)\n      0x1f\n      dup3\n      add\n      and\n      swap1\n      pop\n      dup1\n      dup4\n      add\n      swap3\n      pop\n      pop\n      pop\n      pop\n      pop\n      pop\n      pop\n        /* \"src/MerkleAirdrop.sol\":1137:1149  i_markleRoot */\n      immutable(\"0x7eec76cce4896d02227f0eb4f41a5c901d1a0e9a77ef024c8024ff3e2e1f7280\")\n        /* \"src/MerkleAirdrop.sol\":1151:1155  leaf */\n      dup4\n        /* \"src/MerkleAirdrop.sol\":1105:1123  MerkleProof.verify */\n      tag_39\n        /* \"src/MerkleAirdrop.sol\":1105:1156  MerkleProof.verify(markleProof, i_markleRoot, leaf) */\n      jump\t// in\n    tag_38:\n        /* \"src/MerkleAirdrop.sol\":1101:1228  if(!MerkleProof.verify(markleProof, i_markleRoot, leaf)) {... */\n      tag_40\n      jumpi\n        /* \"src/MerkleAirdrop.sol\":1180:1216  MerkleAirdrop__MerkleProofNotValid() */\n      mload(0x40)\n      0xaa894afb00000000000000000000000000000000000000000000000000000000\n      dup2\n      mstore\n      0x04\n      add\n      mload(0x40)\n      dup1\n      swap2\n      sub\n      swap1\n      revert\n        /* \"src/MerkleAirdrop.sol\":1101:1228  if(!MerkleProof.verify(markleProof, i_markleRoot, leaf)) {... */\n    tag_40:\n        /* \"src/MerkleAirdrop.sol\":1263:1267  true */\n      0x01\n        /* \"src/MerkleAirdrop.sol\":1238:1250  s_hasClaimed */\n      dup1\n        /* \"src/MerkleAirdrop.sol\":1238:1260  s_hasClaimed[_account] */\n      0x00\n        /* \"src/MerkleAirdrop.sol\":1251:1259  _account */\n      dup8\n        /* \"src/MerkleAirdrop.sol\":1238:1260  s_hasClaimed[_account] */\n      0xffffffffffffffffffffffffffffffffffffffff\n      and\n      0xffffffffffffffffffffffffffffffffffffffff\n      and\n      dup2\n      mstore\n      0x20\n      add\n      swap1\n      dup2\n      mstore\n      0x20\n      add\n      0x00\n      keccak256\n      0x00\n        /* \"src/MerkleAirdrop.sol\":1238:1267  s_hasClaimed[_account] = true */\n      0x0100\n      exp\n      dup2\n      sload\n      dup2\n      0xff\n      mul\n      not\n      and\n      swap1\n      dup4\n      iszero\n      iszero\n      mul\n      or\n      swap1\n      sstore\n      pop\n        /* \"src/MerkleAirdrop.sol\":1283:1307  Claim(_account, _amount) */\n      0x47cee97cb7acd717b3c0aa1435d004cd5b3c8c57d70dbceb4e4458bbd60e39d4\n        /* \"src/MerkleAirdrop.sol\":1289:1297  _account */\n      dup6\n        /* \"src/MerkleAirdrop.sol\":1299:1306  _amount */\n      dup6\n        /* \"src/MerkleAirdrop.sol\":1283:1307  Claim(_account, _amount) */\n      mload(0x40)\n      tag_41\n      swap3\n      swap2\n      swap1\n      tag_35\n      jump\t// in\n    tag_41:\n      mload(0x40)\n      dup1\n      swap2\n      sub\n      swap1\n      log1\n        /* \"src/MerkleAirdrop.sol\":1318:1364  i_airdropToken.safeTransfer(_account, _amount) */\n      tag_42\n        /* \"src/MerkleAirdrop.sol\":1346:1354  _account */\n      dup6\n        /* \"src/MerkleAirdrop.sol\":1356:1363  _amount */\n      dup6\n        /* \"src/MerkleAirdrop.sol\":1318:1332  i_airdropToken */\n      immutable(\"0xa7c043501f1df2d72a05841133f37ab6c14315034593e4d14429a2cdafe45a7d\")\n        /* \"src/MerkleAirdrop.sol\":1318:1345  i_airdropToken.safeTransfer */\n      0xffffffffffffffffffffffffffffffffffffffff\n      and\n      tag_43\n      swap1\n        /* \"src/MerkleAirdrop.sol\":1318:1364  i_airdropToken.safeTransfer(_account, _amount) */\n      swap3\n      swap2\n      swap1\n      0xffffffff\n      and\n      jump\t// in\n    tag_42:\n        /* \"src/MerkleAirdrop.sol\":897:1372  {... */\n      pop\n        /* \"src/MerkleAirdrop.sol\":806:1372  function claim(address _account, uint256 _amount, bytes32[] calldata markleProof) external {... */\n      pop\n      pop\n      pop\n      pop\n      jump\t// out\n        /* \"src/MerkleAirdrop.sol\":1380:1474  function getMerkleRoot() external view returns (bytes32){... */\n    tag_13:\n        /* \"src/MerkleAirdrop.sol\":1428:1435  bytes32 */\n      0x00\n        /* \"src/MerkleAirdrop.sol\":1454:1466  i_markleRoot */\n      immutable(\"0x7eec76cce4896d02227f0eb4f41a5c901d1a0e9a77ef024c8024ff3e2e1f7280\")\n        /* \"src/MerkleAirdrop.sol\":1447:1466  return i_markleRoot */\n      swap1\n      pop\n        /* \"src/MerkleAirdrop.sol\":1380:1474  function getMerkleRoot() external view returns (bytes32){... */\n      swap1\n      jump\t// out\n        /* \"src/MerkleAirdrop.sol\":605:649  mapping(address => bool) public s_hasClaimed */\n    tag_19:\n      mstore(0x20, 0x01)\n      dup1\n      0x00\n      mstore\n      keccak256(0x00, 0x40)\n      0x00\n      swap2\n      pop\n      sload\n      swap1\n      0x0100\n      exp\n      swap1\n      div\n      0xff\n      and\n      dup2\n      jump\t// out\n        /* \"src/MerkleAirdrop.sol\":1482:1579  function getAirdroptoken() external view returns (IERC20){... */\n    tag_23:\n        /* \"src/MerkleAirdrop.sol\":1532:1538  IERC20 */\n      0x00\n        /* \"src/MerkleAirdrop.sol\":1557:1571  i_airdropToken */\n      immutable(\"0xa7c043501f1df2d72a05841133f37ab6c14315034593e4d14429a2cdafe45a7d\")\n        /* \"src/MerkleAirdrop.sol\":1550:1571  return i_airdropToken */\n      swap1\n      pop\n        /* \"src/MerkleAirdrop.sol\":1482:1579  function getAirdroptoken() external view returns (IERC20){... */\n      swap1\n      jump\t// out\n        /* \"src/MerkleAirdrop.sol\":482:507  address[] public claimers */\n    tag_29:\n      0x00\n      dup2\n      dup2\n      sload\n      dup2\n      lt\n      tag_46\n      jumpi\n      0x00\n      dup1\n      revert\n    tag_46:\n      swap1\n      0x00\n      mstore\n      keccak256(0x00, 0x20)\n      add\n      0x00\n      swap2\n      pop\n      sload\n      swap1\n      0x0100\n      exp\n      swap1\n      div\n      0xffffffffffffffffffffffffffffffffffffffff\n      and\n      dup2\n      jump\t// out\n        /* \"@openzeppelin/contracts/utils/cryptography/MerkleProof.sol\":1902:2056  function verify(bytes32[] memory proof, bytes32 root, bytes32 leaf) internal pure returns (bool) {... */\n    tag_39:\n        /* \"@openzeppelin/contracts/utils/cryptography/MerkleProof.sol\":1993:1997  bool */\n      0x00\n        /* \"@openzeppelin/contracts/utils/cryptography/MerkleProof.sol\":2045:2049  root */\n      dup3\n        /* \"@openzeppelin/contracts/utils/cryptography/MerkleProof.sol\":2016:2041  processProof(proof, leaf) */\n      tag_49\n        /* \"@openzeppelin/contracts/utils/cryptography/MerkleProof.sol\":2029:2034  proof */\n      dup6\n        /* \"@openzeppelin/contracts/utils/cryptography/MerkleProof.sol\":2036:2040  leaf */\n      dup5\n        /* \"@openzeppelin/contracts/utils/cryptography/MerkleProof.sol\":2016:2028  processProof */\n      tag_50\n        /* \"@openzeppelin/contracts/utils/cryptography/MerkleProof.sol\":2016:2041  processProof(proof, leaf) */\n      jump\t// in\n    tag_49:\n        /* \"@openzeppelin/contracts/utils/cryptography/MerkleProof.sol\":2016:2049  processProof(proof, leaf) == root */\n      eq\n        /* \"@openzeppelin/contracts/utils/cryptography/MerkleProof.sol\":2009:2049  return processProof(proof, leaf) == root */\n      swap1\n      pop\n        /* \"@openzeppelin/contracts/utils/cryptography/MerkleProof.sol\":1902:2056  function verify(bytes32[] memory proof, bytes32 root, bytes32 leaf) internal pure returns (bool) {... */\n      swap4\n      swap3\n      pop\n      pop\n      pop\n      jump\t// out\n        /* \"@openzeppelin/contracts/token/ERC20/utils/SafeERC20.sol\":1219:1379  function safeTransfer(IERC20 token, address to, uint256 value) internal {... */\n    tag_43:\n        /* \"@openzeppelin/contracts/token/ERC20/utils/SafeERC20.sol\":1301:1372  _callOptionalReturn(token, abi.encodeCall(token.transfer, (to, value))) */\n      tag_52\n        /* \"@openzeppelin/contracts/token/ERC20/utils/SafeERC20.sol\":1321:1326  token */\n      dup4\n        /* \"@openzeppelin/contracts/token/ERC20/utils/SafeERC20.sol\":1343:1348  token */\n      dup5\n        /* \"@openzeppelin/contracts/token/ERC20/utils/SafeERC20.sol\":1343:1357  token.transfer */\n      0xffffffffffffffffffffffffffffffffffffffff\n      and\n      0xa9059cbb\n        /* \"@openzeppelin/contracts/token/ERC20/utils/SafeERC20.sol\":1360:1362  to */\n      dup6\n        /* \"@openzeppelin/contracts/token/ERC20/utils/SafeERC20.sol\":1364:1369  value */\n      dup6\n        /* \"@openzeppelin/contracts/token/ERC20/utils/SafeERC20.sol\":1328:1371  abi.encodeCall(token.transfer, (to, value)) */\n      add(0x24, mload(0x40))\n      tag_53\n      swap3\n      swap2\n      swap1\n      tag_35\n      jump\t// in\n    tag_53:\n      mload(0x40)\n      0x20\n      dup2\n      dup4\n      sub\n      sub\n      dup2\n      mstore\n      swap1\n      0x40\n      mstore\n      swap2\n      pop\n      0xe0\n      shl\n      0x20\n      dup3\n      add\n      dup1\n      mload\n      0xffffffffffffffffffffffffffffffffffffffffffffffffffffffff\n      dup4\n      dup2\n      dup4\n      and\n      or\n      dup4\n      mstore\n      pop\n      pop\n      pop\n      pop\n        /* \"@openzeppelin/contracts/token/ERC20/utils/SafeERC20.sol\":1301:1320  _callOptionalReturn */\n      tag_54\n        /* \"@openzeppelin/contracts/token/ERC20/utils/SafeERC20.sol\":1301:1372  _callOptionalReturn(token, abi.encodeCall(token.transfer, (to, value))) */\n      jump\t// in\n    tag_52:\n        /* \"@openzeppelin/contracts/token/ERC20/utils/SafeERC20.sol\":1219:1379  function safeTransfer(IERC20 token, address to, uint256 value) internal {... */\n      pop\n      pop\n      pop\n      jump\t// out\n        /* \"@openzeppelin/contracts/utils/cryptography/MerkleProof.sol\":2457:2765  function processProof(bytes32[] memory proof, bytes32 leaf) internal pure returns (bytes32) {... */\n    tag_50:\n        /* \"@openzeppelin/contracts/utils/cryptography/MerkleProof.sol\":2540:2547  bytes32 */\n      0x00\n        /* \"@openzeppelin/contracts/utils/cryptography/MerkleProof.sol\":2559:2579  bytes32 computedHash */\n      0x00\n        /* \"@openzeppelin/contracts/utils/cryptography/MerkleProof.sol\":2582:2586  leaf */\n      dup3\n        /* \"@openzeppelin/contracts/utils/cryptography/MerkleProof.sol\":2559:2586  bytes32 computedHash = leaf */\n      swap1\n      pop\n        /* \"@openzeppelin/contracts/utils/cryptography/MerkleProof.sol\":2601:2610  uint256 i */\n      0x00\n        /* \"@openzeppelin/contracts/utils/cryptography/MerkleProof.sol\":2613:2614  0 */\n      0x00\n        /* \"@openzeppelin/contracts/utils/cryptography/MerkleProof.sol\":2601:2614  uint256 i = 0 */\n      swap1\n      pop\n        /* \"@openzeppelin/contracts/utils/cryptography/MerkleProof.sol\":2596:2730  for (uint256 i = 0; i < proof.length; i++) {... */\n    tag_56:\n        /* \"@openzeppelin/contracts/utils/cryptography/MerkleProof.sol\":2620:2625  proof */\n      dup5\n        /* \"@openzeppelin/contracts/utils/cryptography/MerkleProof.sol\":2620:2632  proof.length */\n      mload\n        /* \"@openzeppelin/contracts/utils/cryptography/MerkleProof.sol\":2616:2617  i */\n      dup2\n        /* \"@openzeppelin/contracts/utils/cryptography/MerkleProof.sol\":2616:2632  i < proof.length */\n      lt\n        /* \"@openzeppelin/contracts/utils/cryptography/MerkleProof.sol\":2596:2730  for (uint256 i = 0; i < proof.length; i++) {... */\n      iszero\n      tag_57\n      jumpi\n        /* \"@openzeppelin/contracts/utils/cryptography/MerkleProof.sol\":2668:2719  Hashes.commutativeKeccak256(computedHash, proof[i]) */\n      tag_59\n        /* \"@openzeppelin/contracts/utils/cryptography/MerkleProof.sol\":2696:2708  computedHash */\n      dup3\n        /* \"@openzeppelin/contracts/utils/cryptography/MerkleProof.sol\":2710:2715  proof */\n      dup7\n        /* \"@openzeppelin/contracts/utils/cryptography/MerkleProof.sol\":2716:2717  i */\n      dup4\n        /* \"@openzeppelin/contracts/utils/cryptography/MerkleProof.sol\":2710:2718  proof[i] */\n      dup2\n      mload\n      dup2\n      lt\n      tag_60\n      jumpi\n      tag_61\n      tag_62\n      jump\t// in\n    tag_61:\n    tag_60:\n      0x20\n      mul\n      0x20\n      add\n      add\n      mload\n        /* \"@openzeppelin/contracts/utils/cryptography/MerkleProof.sol\":2668:2695  Hashes.commutativeKeccak256 */\n      tag_63\n        /* \"@openzeppelin/contracts/utils/cryptography/MerkleProof.sol\":2668:2719  Hashes.commutativeKeccak256(computedHash, proof[i]) */\n      jump\t// in\n    tag_59:\n        /* \"@openzeppelin/contracts/utils/cryptography/MerkleProof.sol\":2653:2719  computedHash = Hashes.commutativeKeccak256(computedHash, proof[i]) */\n      swap2\n      pop\n        /* \"@openzeppelin/contracts/utils/cryptography/MerkleProof.sol\":2634:2637  i++ */\n      dup1\n      dup1\n      0x01\n      add\n      swap2\n      pop\n      pop\n        /* \"@openzeppelin/contracts/utils/cryptography/MerkleProof.sol\":2596:2730  for (uint256 i = 0; i < proof.length; i++) {... */\n      jump(tag_56)\n    tag_57:\n      pop\n        /* \"@openzeppelin/contracts/utils/cryptography/MerkleProof.sol\":2746:2758  computedHash */\n      dup1\n        /* \"@openzeppelin/contracts/utils/cryptography/MerkleProof.sol\":2739:2758  return computedHash */\n      swap2\n      pop\n      pop\n        /* \"@openzeppelin/contracts/utils/cryptography/MerkleProof.sol\":2457:2765  function processProof(bytes32[] memory proof, bytes32 leaf) internal pure returns (bytes32) {... */\n      swap3\n      swap2\n      pop\n      pop\n      jump\t// out\n        /* \"@openzeppelin/contracts/token/ERC20/utils/SafeERC20.sol\":8370:9090  function _callOptionalReturn(IERC20 token, bytes memory data) private {... */\n    tag_54:\n        /* \"@openzeppelin/contracts/token/ERC20/utils/SafeERC20.sol\":8450:8468  uint256 returnSize */\n      0x00\n        /* \"@openzeppelin/contracts/token/ERC20/utils/SafeERC20.sol\":8478:8497  uint256 returnValue */\n      0x00\n        /* \"@openzeppelin/contracts/token/ERC20/utils/SafeERC20.sol\":8616:8620  0x20 */\n      0x20\n        /* \"@openzeppelin/contracts/token/ERC20/utils/SafeERC20.sol\":8613:8614  0 */\n      0x00\n        /* \"@openzeppelin/contracts/token/ERC20/utils/SafeERC20.sol\":8606:8610  data */\n      dup5\n        /* \"@openzeppelin/contracts/token/ERC20/utils/SafeERC20.sol\":8600:8611  mload(data) */\n      mload\n        /* \"@openzeppelin/contracts/token/ERC20/utils/SafeERC20.sol\":8593:8597  0x20 */\n      0x20\n        /* \"@openzeppelin/contracts/token/ERC20/utils/SafeERC20.sol\":8587:8591  data */\n      dup7\n        /* \"@openzeppelin/contracts/token/ERC20/utils/SafeERC20.sol\":8583:8598  add(data, 0x20) */\n      add\n        /* \"@openzeppelin/contracts/token/ERC20/utils/SafeERC20.sol\":8580:8581  0 */\n      0x00\n        /* \"@openzeppelin/contracts/token/ERC20/utils/SafeERC20.sol\":8573:8578  token */\n      dup9\n        /* \"@openzeppelin/contracts/token/ERC20/utils/SafeERC20.sol\":8566:8571  gas() */\n      gas\n        /* \"@openzeppelin/contracts/token/ERC20/utils/SafeERC20.sol\":8561:8621  call(gas(), token, 0, add(data, 0x20), mload(data), 0, 0x20) */\n      call\n        /* \"@openzeppelin/contracts/token/ERC20/utils/SafeERC20.sol\":8673:8680  success */\n      dup1\n        /* \"@openzeppelin/contracts/token/ERC20/utils/SafeERC20.sol\":8663:8839  if iszero(success) {... */\n      tag_65\n      jumpi\n        /* \"@openzeppelin/contracts/token/ERC20/utils/SafeERC20.sol\":8717:8721  0x40 */\n      0x40\n        /* \"@openzeppelin/contracts/token/ERC20/utils/SafeERC20.sol\":8711:8722  mload(0x40) */\n      mload\n        /* \"@openzeppelin/contracts/token/ERC20/utils/SafeERC20.sol\":8762:8778  returndatasize() */\n      returndatasize\n        /* \"@openzeppelin/contracts/token/ERC20/utils/SafeERC20.sol\":8759:8760  0 */\n      0x00\n        /* \"@openzeppelin/contracts/token/ERC20/utils/SafeERC20.sol\":8754:8757  ptr */\n      dup3\n        /* \"@openzeppelin/contracts/token/ERC20/utils/SafeERC20.sol\":8739:8779  returndatacopy(ptr, 0, returndatasize()) */\n      returndatacopy\n        /* \"@openzeppelin/contracts/token/ERC20/utils/SafeERC20.sol\":8808:8824  returndatasize() */\n      returndatasize\n        /* \"@openzeppelin/contracts/token/ERC20/utils/SafeERC20.sol\":8803:8806  ptr */\n      dup2\n        /* \"@openzeppelin/contracts/token/ERC20/utils/SafeERC20.sol\":8796:8825  revert(ptr, returndatasize()) */\n      revert\n        /* \"@openzeppelin/contracts/token/ERC20/utils/SafeERC20.sol\":8663:8839  if iszero(success) {... */\n    tag_65:\n        /* \"@openzeppelin/contracts/token/ERC20/utils/SafeERC20.sol\":8866:8882  returndatasize() */\n      returndatasize\n        /* \"@openzeppelin/contracts/token/ERC20/utils/SafeERC20.sol\":8852:8882  returnSize := returndatasize() */\n      swap3\n      pop\n        /* \"@openzeppelin/contracts/token/ERC20/utils/SafeERC20.sol\":8916:8917  0 */\n      0x00\n        /* \"@openzeppelin/contracts/token/ERC20/utils/SafeERC20.sol\":8910:8918  mload(0) */\n      mload\n        /* \"@openzeppelin/contracts/token/ERC20/utils/SafeERC20.sol\":8895:8918  returnValue := mload(0) */\n      swap2\n      pop\n        /* \"@openzeppelin/contracts/token/ERC20/utils/SafeERC20.sol\":8532:8928  {... */\n      pop\n        /* \"@openzeppelin/contracts/token/ERC20/utils/SafeERC20.sol\":8956:8957  0 */\n      0x00\n        /* \"@openzeppelin/contracts/token/ERC20/utils/SafeERC20.sol\":8942:8952  returnSize */\n      dup3\n        /* \"@openzeppelin/contracts/token/ERC20/utils/SafeERC20.sol\":8942:8957  returnSize == 0 */\n      eq\n        /* \"@openzeppelin/contracts/token/ERC20/utils/SafeERC20.sol\":8942:9010  returnSize == 0 ? address(token).code.length == 0 : returnValue != 1 */\n      tag_66\n      jumpi\n        /* \"@openzeppelin/contracts/token/ERC20/utils/SafeERC20.sol\":9009:9010  1 */\n      0x01\n        /* \"@openzeppelin/contracts/token/ERC20/utils/SafeERC20.sol\":8994:9005  returnValue */\n      dup2\n        /* \"@openzeppelin/contracts/token/ERC20/utils/SafeERC20.sol\":8994:9010  returnValue != 1 */\n      eq\n      iszero\n        /* \"@openzeppelin/contracts/token/ERC20/utils/SafeERC20.sol\":8942:9010  returnSize == 0 ? address(token).code.length == 0 : returnValue != 1 */\n      jump(tag_67)\n    tag_66:\n        /* \"@openzeppelin/contracts/token/ERC20/utils/SafeERC20.sol\":8990:8991  0 */\n      0x00\n        /* \"@openzeppelin/contracts/token/ERC20/utils/SafeERC20.sol\":8968:8973  token */\n      dup5\n        /* \"@openzeppelin/contracts/token/ERC20/utils/SafeERC20.sol\":8960:8986  address(token).code.length */\n      0xffffffffffffffffffffffffffffffffffffffff\n      and\n      extcodesize\n        /* \"@openzeppelin/contracts/token/ERC20/utils/SafeERC20.sol\":8960:8991  address(token).code.length == 0 */\n      eq\n        /* \"@openzeppelin/contracts/token/ERC20/utils/SafeERC20.sol\":8942:9010  returnSize == 0 ? address(token).code.length == 0 : returnValue != 1 */\n    tag_67:\n        /* \"@openzeppelin/contracts/token/ERC20/utils/SafeERC20.sol\":8938:9084  if (returnSize == 0 ? address(token).code.length == 0 : returnValue != 1) {... */\n      iszero\n      tag_68\n      jumpi\n        /* \"@openzeppelin/contracts/token/ERC20/utils/SafeERC20.sol\":9066:9071  token */\n      dup4\n        /* \"@openzeppelin/contracts/token/ERC20/utils/SafeERC20.sol\":9033:9073  SafeERC20FailedOperation(address(token)) */\n      mload(0x40)\n      0x5274afe700000000000000000000000000000000000000000000000000000000\n      dup2\n      mstore\n      0x04\n      add\n      tag_69\n      swap2\n      swap1\n      tag_31\n      jump\t// in\n    tag_69:\n      mload(0x40)\n      dup1\n      swap2\n      sub\n      swap1\n      revert\n        /* \"@openzeppelin/contracts/token/ERC20/utils/SafeERC20.sol\":8938:9084  if (returnSize == 0 ? address(token).code.length == 0 : returnValue != 1) {... */\n    tag_68:\n        /* \"@openzeppelin/contracts/token/ERC20/utils/SafeERC20.sol\":8440:9090  {... */\n      pop\n      pop\n        /* \"@openzeppelin/contracts/token/ERC20/utils/SafeERC20.sol\":8370:9090  function _callOptionalReturn(IERC20 token, bytes memory data) private {... */\n      pop\n      pop\n      jump\t// out\n        /* \"@openzeppelin/contracts/utils/cryptography/Hashes.sol\":504:671  function commutativeKeccak256(bytes32 a, bytes32 b) internal pure returns (bytes32) {... */\n    tag_63:\n        /* \"@openzeppelin/contracts/utils/cryptography/Hashes.sol\":579:586  bytes32 */\n      0x00\n        /* \"@openzeppelin/contracts/utils/cryptography/Hashes.sol\":609:610  b */\n      dup2\n        /* \"@openzeppelin/contracts/utils/cryptography/Hashes.sol\":605:606  a */\n      dup4\n        /* \"@openzeppelin/contracts/utils/cryptography/Hashes.sol\":605:610  a < b */\n      lt\n        /* \"@openzeppelin/contracts/utils/cryptography/Hashes.sol\":605:664  a < b ? efficientKeccak256(a, b) : efficientKeccak256(b, a) */\n      tag_71\n      jumpi\n        /* \"@openzeppelin/contracts/utils/cryptography/Hashes.sol\":640:664  efficientKeccak256(b, a) */\n      tag_72\n        /* \"@openzeppelin/contracts/utils/cryptography/Hashes.sol\":659:660  b */\n      dup3\n        /* \"@openzeppelin/contracts/utils/cryptography/Hashes.sol\":662:663  a */\n      dup5\n        /* \"@openzeppelin/contracts/utils/cryptography/Hashes.sol\":640:658  efficientKeccak256 */\n      tag_73\n        /* \"@openzeppelin/contracts/utils/cryptography/Hashes.sol\":640:664  efficientKeccak256(b, a) */\n      jump\t// in\n    tag_72:\n        /* \"@openzeppelin/contracts/utils/cryptography/Hashes.sol\":605:664  a < b ? efficientKeccak256(a, b) : efficientKeccak256(b, a) */\n      jump(tag_74)\n    tag_71:\n        /* \"@openzeppelin/contracts/utils/cryptography/Hashes.sol\":613:637  efficientKeccak256(a, b) */\n      tag_75\n        /* \"@openzeppelin/contracts/utils/cryptography/Hashes.sol\":632:633  a */\n      dup4\n        /* \"@openzeppelin/contracts/utils/cryptography/Hashes.sol\":635:636  b */\n      dup4\n        /* \"@openzeppelin/contracts/utils/cryptography/Hashes.sol\":613:631  efficientKeccak256 */\n      tag_73\n        /* \"@openzeppelin/contracts/utils/cryptography/Hashes.sol\":613:637  efficientKeccak256(a, b) */\n      jump\t// in\n    tag_75:\n        /* \"@openzeppelin/contracts/utils/cryptography/Hashes.sol\":605:664  a < b ? efficientKeccak256(a, b) : efficientKeccak256(b, a) */\n    tag_74:\n        /* \"@openzeppelin/contracts/utils/cryptography/Hashes.sol\":598:664  return a < b ? efficientKeccak256(a, b) : efficientKeccak256(b, a) */\n      swap1\n      pop\n        /* \"@openzeppelin/contracts/utils/cryptography/Hashes.sol\":504:671  function commutativeKeccak256(bytes32 a, bytes32 b) internal pure returns (bytes32) {... */\n      swap3\n      swap2\n      pop\n      pop\n      jump\t// out\n        /* \"@openzeppelin/contracts/utils/cryptography/Hashes.sol\":791:1030  function efficientKeccak256(bytes32 a, bytes32 b) internal pure returns (bytes32 value) {... */\n    tag_73:\n        /* \"@openzeppelin/contracts/utils/cryptography/Hashes.sol\":864:877  bytes32 value */\n      0x00\n        /* \"@openzeppelin/contracts/utils/cryptography/Hashes.sol\":941:942  a */\n      dup3\n        /* \"@openzeppelin/contracts/utils/cryptography/Hashes.sol\":935:939  0x00 */\n      0x00\n        /* \"@openzeppelin/contracts/utils/cryptography/Hashes.sol\":928:943  mstore(0x00, a) */\n      mstore\n        /* \"@openzeppelin/contracts/utils/cryptography/Hashes.sol\":969:970  b */\n      dup2\n        /* \"@openzeppelin/contracts/utils/cryptography/Hashes.sol\":963:967  0x20 */\n      0x20\n        /* \"@openzeppelin/contracts/utils/cryptography/Hashes.sol\":956:971  mstore(0x20, b) */\n      mstore\n        /* \"@openzeppelin/contracts/utils/cryptography/Hashes.sol\":1009:1013  0x40 */\n      0x40\n        /* \"@openzeppelin/contracts/utils/cryptography/Hashes.sol\":1003:1007  0x00 */\n      0x00\n        /* \"@openzeppelin/contracts/utils/cryptography/Hashes.sol\":993:1014  keccak256(0x00, 0x40) */\n      keccak256\n        /* \"@openzeppelin/contracts/utils/cryptography/Hashes.sol\":984:1014  value := keccak256(0x00, 0x40) */\n      swap1\n      pop\n        /* \"@openzeppelin/contracts/utils/cryptography/Hashes.sol\":791:1030  function efficientKeccak256(bytes32 a, bytes32 b) internal pure returns (bytes32 value) {... */\n      swap3\n      swap2\n      pop\n      pop\n      jump\t// out\n        /* \"#utility.yul\":88:205   */\n    tag_78:\n        /* \"#utility.yul\":197:198   */\n      0x00\n        /* \"#utility.yul\":194:195   */\n      0x00\n        /* \"#utility.yul\":187:199   */\n      revert\n        /* \"#utility.yul\":211:328   */\n    tag_79:\n        /* \"#utility.yul\":320:321   */\n      0x00\n        /* \"#utility.yul\":317:318   */\n      0x00\n        /* \"#utility.yul\":310:322   */\n      revert\n        /* \"#utility.yul\":334:460   */\n    tag_80:\n        /* \"#utility.yul\":371:378   */\n      0x00\n        /* \"#utility.yul\":411:453   */\n      0xffffffffffffffffffffffffffffffffffffffff\n        /* \"#utility.yul\":404:409   */\n      dup3\n        /* \"#utility.yul\":400:454   */\n      and\n        /* \"#utility.yul\":389:454   */\n      swap1\n      pop\n        /* \"#utility.yul\":334:460   */\n      swap2\n      swap1\n      pop\n      jump\t// out\n        /* \"#utility.yul\":466:562   */\n    tag_81:\n        /* \"#utility.yul\":503:510   */\n      0x00\n        /* \"#utility.yul\":532:556   */\n      tag_110\n        /* \"#utility.yul\":550:555   */\n      dup3\n        /* \"#utility.yul\":532:556   */\n      tag_80\n      jump\t// in\n    tag_110:\n        /* \"#utility.yul\":521:556   */\n      swap1\n      pop\n        /* \"#utility.yul\":466:562   */\n      swap2\n      swap1\n      pop\n      jump\t// out\n        /* \"#utility.yul\":568:690   */\n    tag_82:\n        /* \"#utility.yul\":641:665   */\n      tag_112\n        /* \"#utility.yul\":659:664   */\n      dup2\n        /* \"#utility.yul\":641:665   */\n      tag_81\n      jump\t// in\n    tag_112:\n        /* \"#utility.yul\":634:639   */\n      dup2\n        /* \"#utility.yul\":631:666   */\n      eq\n        /* \"#utility.yul\":621:684   */\n      tag_113\n      jumpi\n        /* \"#utility.yul\":680:681   */\n      0x00\n        /* \"#utility.yul\":677:678   */\n      0x00\n        /* \"#utility.yul\":670:682   */\n      revert\n        /* \"#utility.yul\":621:684   */\n    tag_113:\n        /* \"#utility.yul\":568:690   */\n      pop\n      jump\t// out\n        /* \"#utility.yul\":696:835   */\n    tag_83:\n        /* \"#utility.yul\":742:747   */\n      0x00\n        /* \"#utility.yul\":780:786   */\n      dup2\n        /* \"#utility.yul\":767:787   */\n      calldataload\n        /* \"#utility.yul\":758:787   */\n      swap1\n      pop\n        /* \"#utility.yul\":796:829   */\n      tag_115\n        /* \"#utility.yul\":823:828   */\n      dup2\n        /* \"#utility.yul\":796:829   */\n      tag_82\n      jump\t// in\n    tag_115:\n        /* \"#utility.yul\":696:835   */\n      swap3\n      swap2\n      pop\n      pop\n      jump\t// out\n        /* \"#utility.yul\":841:918   */\n    tag_84:\n        /* \"#utility.yul\":878:885   */\n      0x00\n        /* \"#utility.yul\":907:912   */\n      dup2\n        /* \"#utility.yul\":896:912   */\n      swap1\n      pop\n        /* \"#utility.yul\":841:918   */\n      swap2\n      swap1\n      pop\n      jump\t// out\n        /* \"#utility.yul\":924:1046   */\n    tag_85:\n        /* \"#utility.yul\":997:1021   */\n      tag_118\n        /* \"#utility.yul\":1015:1020   */\n      dup2\n        /* \"#utility.yul\":997:1021   */\n      tag_84\n      jump\t// in\n    tag_118:\n        /* \"#utility.yul\":990:995   */\n      dup2\n        /* \"#utility.yul\":987:1022   */\n      eq\n        /* \"#utility.yul\":977:1040   */\n      tag_119\n      jumpi\n        /* \"#utility.yul\":1036:1037   */\n      0x00\n        /* \"#utility.yul\":1033:1034   */\n      0x00\n        /* \"#utility.yul\":1026:1038   */\n      revert\n        /* \"#utility.yul\":977:1040   */\n    tag_119:\n        /* \"#utility.yul\":924:1046   */\n      pop\n      jump\t// out\n        /* \"#utility.yul\":1052:1191   */\n    tag_86:\n        /* \"#utility.yul\":1098:1103   */\n      0x00\n        /* \"#utility.yul\":1136:1142   */\n      dup2\n        /* \"#utility.yul\":1123:1143   */\n      calldataload\n        /* \"#utility.yul\":1114:1143   */\n      swap1\n      pop\n        /* \"#utility.yul\":1152:1185   */\n      tag_121\n        /* \"#utility.yul\":1179:1184   */\n      dup2\n        /* \"#utility.yul\":1152:1185   */\n      tag_85\n      jump\t// in\n    tag_121:\n        /* \"#utility.yul\":1052:1191   */\n      swap3\n      swap2\n      pop\n      pop\n      jump\t// out\n        /* \"#utility.yul\":1197:1314   */\n    tag_87:\n        /* \"#utility.yul\":1306:1307   */\n      0x00\n        /* \"#utility.yul\":1303:1304   */\n      0x00\n        /* \"#utility.yul\":1296:1308   */\n      revert\n        /* \"#utility.yul\":1320:1437   */\n    tag_88:\n        /* \"#utility.yul\":1429:1430   */\n      0x00\n        /* \"#utility.yul\":1426:1427   */\n      0x00\n        /* \"#utility.yul\":1419:1431   */\n      revert\n        /* \"#utility.yul\":1443:1560   */\n    tag_89:\n        /* \"#utility.yul\":1552:1553   */\n      0x00\n        /* \"#utility.yul\":1549:1550   */\n      0x00\n        /* \"#utility.yul\":1542:1554   */\n      revert\n        /* \"#utility.yul\":1583:2151   */\n    tag_90:\n        /* \"#utility.yul\":1656:1664   */\n      0x00\n        /* \"#utility.yul\":1666:1672   */\n      0x00\n        /* \"#utility.yul\":1716:1719   */\n      dup4\n        /* \"#utility.yul\":1709:1713   */\n      0x1f\n        /* \"#utility.yul\":1701:1707   */\n      dup5\n        /* \"#utility.yul\":1697:1714   */\n      add\n        /* \"#utility.yul\":1693:1720   */\n      slt\n        /* \"#utility.yul\":1683:1805   */\n      tag_126\n      jumpi\n        /* \"#utility.yul\":1724:1803   */\n      tag_127\n      tag_87\n      jump\t// in\n    tag_127:\n        /* \"#utility.yul\":1683:1805   */\n    tag_126:\n        /* \"#utility.yul\":1837:1843   */\n      dup3\n        /* \"#utility.yul\":1824:1844   */\n      calldataload\n        /* \"#utility.yul\":1814:1844   */\n      swap1\n      pop\n        /* \"#utility.yul\":1867:1885   */\n      0xffffffffffffffff\n        /* \"#utility.yul\":1859:1865   */\n      dup2\n        /* \"#utility.yul\":1856:1886   */\n      gt\n        /* \"#utility.yul\":1853:1970   */\n      iszero\n      tag_128\n      jumpi\n        /* \"#utility.yul\":1889:1968   */\n      tag_129\n      tag_88\n      jump\t// in\n    tag_129:\n        /* \"#utility.yul\":1853:1970   */\n    tag_128:\n        /* \"#utility.yul\":2003:2007   */\n      0x20\n        /* \"#utility.yul\":1995:2001   */\n      dup4\n        /* \"#utility.yul\":1991:2008   */\n      add\n        /* \"#utility.yul\":1979:2008   */\n      swap2\n      pop\n        /* \"#utility.yul\":2057:2060   */\n      dup4\n        /* \"#utility.yul\":2049:2053   */\n      0x20\n        /* \"#utility.yul\":2041:2047   */\n      dup3\n        /* \"#utility.yul\":2037:2054   */\n      mul\n        /* \"#utility.yul\":2027:2035   */\n      dup4\n        /* \"#utility.yul\":2023:2055   */\n      add\n        /* \"#utility.yul\":2020:2061   */\n      gt\n        /* \"#utility.yul\":2017:2145   */\n      iszero\n      tag_130\n      jumpi\n        /* \"#utility.yul\":2064:2143   */\n      tag_131\n      tag_89\n      jump\t// in\n    tag_131:\n        /* \"#utility.yul\":2017:2145   */\n    tag_130:\n        /* \"#utility.yul\":1583:2151   */\n      swap3\n      pop\n      swap3\n      swap1\n      pop\n      jump\t// out\n        /* \"#utility.yul\":2157:3006   */\n    tag_10:\n        /* \"#utility.yul\":2261:2267   */\n      0x00\n        /* \"#utility.yul\":2269:2275   */\n      0x00\n        /* \"#utility.yul\":2277:2283   */\n      0x00\n        /* \"#utility.yul\":2285:2291   */\n      0x00\n        /* \"#utility.yul\":2334:2336   */\n      0x60\n        /* \"#utility.yul\":2322:2331   */\n      dup6\n        /* \"#utility.yul\":2313:2320   */\n      dup8\n        /* \"#utility.yul\":2309:2332   */\n      sub\n        /* \"#utility.yul\":2305:2337   */\n      slt\n        /* \"#utility.yul\":2302:2421   */\n      iszero\n      tag_133\n      jumpi\n        /* \"#utility.yul\":2340:2419   */\n      tag_134\n      tag_78\n      jump\t// in\n    tag_134:\n        /* \"#utility.yul\":2302:2421   */\n    tag_133:\n        /* \"#utility.yul\":2460:2461   */\n      0x00\n        /* \"#utility.yul\":2485:2538   */\n      tag_135\n        /* \"#utility.yul\":2530:2537   */\n      dup8\n        /* \"#utility.yul\":2521:2527   */\n      dup3\n        /* \"#utility.yul\":2510:2519   */\n      dup9\n        /* \"#utility.yul\":2506:2528   */\n      add\n        /* \"#utility.yul\":2485:2538   */\n      tag_83\n      jump\t// in\n    tag_135:\n        /* \"#utility.yul\":2475:2538   */\n      swap5\n      pop\n        /* \"#utility.yul\":2431:2548   */\n      pop\n        /* \"#utility.yul\":2587:2589   */\n      0x20\n        /* \"#utility.yul\":2613:2666   */\n      tag_136\n        /* \"#utility.yul\":2658:2665   */\n      dup8\n        /* \"#utility.yul\":2649:2655   */\n      dup3\n        /* \"#utility.yul\":2638:2647   */\n      dup9\n        /* \"#utility.yul\":2634:2656   */\n      add\n        /* \"#utility.yul\":2613:2666   */\n      tag_86\n      jump\t// in\n    tag_136:\n        /* \"#utility.yul\":2603:2666   */\n      swap4\n      pop\n        /* \"#utility.yul\":2558:2676   */\n      pop\n        /* \"#utility.yul\":2743:2745   */\n      0x40\n        /* \"#utility.yul\":2732:2741   */\n      dup6\n        /* \"#utility.yul\":2728:2746   */\n      add\n        /* \"#utility.yul\":2715:2747   */\n      calldataload\n        /* \"#utility.yul\":2774:2792   */\n      0xffffffffffffffff\n        /* \"#utility.yul\":2766:2772   */\n      dup2\n        /* \"#utility.yul\":2763:2793   */\n      gt\n        /* \"#utility.yul\":2760:2877   */\n      iszero\n      tag_137\n      jumpi\n        /* \"#utility.yul\":2796:2875   */\n      tag_138\n      tag_79\n      jump\t// in\n    tag_138:\n        /* \"#utility.yul\":2760:2877   */\n    tag_137:\n        /* \"#utility.yul\":2909:2989   */\n      tag_139\n        /* \"#utility.yul\":2981:2988   */\n      dup8\n        /* \"#utility.yul\":2972:2978   */\n      dup3\n        /* \"#utility.yul\":2961:2970   */\n      dup9\n        /* \"#utility.yul\":2957:2979   */\n      add\n        /* \"#utility.yul\":2909:2989   */\n      tag_90\n      jump\t// in\n    tag_139:\n        /* \"#utility.yul\":2891:2989   */\n      swap3\n      pop\n      swap3\n      pop\n        /* \"#utility.yul\":2686:2999   */\n      pop\n        /* \"#utility.yul\":2157:3006   */\n      swap3\n      swap6\n      swap2\n      swap5\n      pop\n      swap3\n      pop\n      jump\t// out\n        /* \"#utility.yul\":3012:3089   */\n    tag_91:\n        /* \"#utility.yul\":3049:3056   */\n      0x00\n        /* \"#utility.yul\":3078:3083   */\n      dup2\n        /* \"#utility.yul\":3067:3083   */\n      swap1\n      pop\n        /* \"#utility.yul\":3012:3089   */\n      swap2\n      swap1\n      pop\n      jump\t// out\n        /* \"#utility.yul\":3095:3213   */\n    tag_92:\n        /* \"#utility.yul\":3182:3206   */\n      tag_142\n        /* \"#utility.yul\":3200:3205   */\n      dup2\n        /* \"#utility.yul\":3182:3206   */\n      tag_91\n      jump\t// in\n    tag_142:\n        /* \"#utility.yul\":3177:3180   */\n      dup3\n        /* \"#utility.yul\":3170:3207   */\n      mstore\n        /* \"#utility.yul\":3095:3213   */\n      pop\n      pop\n      jump\t// out\n        /* \"#utility.yul\":3219:3441   */\n    tag_15:\n        /* \"#utility.yul\":3312:3316   */\n      0x00\n        /* \"#utility.yul\":3350:3352   */\n      0x20\n        /* \"#utility.yul\":3339:3348   */\n      dup3\n        /* \"#utility.yul\":3335:3353   */\n      add\n        /* \"#utility.yul\":3327:3353   */\n      swap1\n      pop\n        /* \"#utility.yul\":3363:3434   */\n      tag_144\n        /* \"#utility.yul\":3431:3432   */\n      0x00\n        /* \"#utility.yul\":3420:3429   */\n      dup4\n        /* \"#utility.yul\":3416:3433   */\n      add\n        /* \"#utility.yul\":3407:3413   */\n      dup5\n        /* \"#utility.yul\":3363:3434   */\n      tag_92\n      jump\t// in\n    tag_144:\n        /* \"#utility.yul\":3219:3441   */\n      swap3\n      swap2\n      pop\n      pop\n      jump\t// out\n        /* \"#utility.yul\":3447:3776   */\n    tag_18:\n        /* \"#utility.yul\":3506:3512   */\n      0x00\n        /* \"#utility.yul\":3555:3557   */\n      0x20\n        /* \"#utility.yul\":3543:3552   */\n      dup3\n        /* \"#utility.yul\":3534:3541   */\n      dup5\n        /* \"#utility.yul\":3530:3553   */\n      sub\n        /* \"#utility.yul\":3526:3558   */\n      slt\n        /* \"#utility.yul\":3523:3642   */\n      iszero\n      tag_146\n      jumpi\n        /* \"#utility.yul\":3561:3640   */\n      tag_147\n      tag_78\n      jump\t// in\n    tag_147:\n        /* \"#utility.yul\":3523:3642   */\n    tag_146:\n        /* \"#utility.yul\":3681:3682   */\n      0x00\n        /* \"#utility.yul\":3706:3759   */\n      tag_148\n        /* \"#utility.yul\":3751:3758   */\n      dup5\n        /* \"#utility.yul\":3742:3748   */\n      dup3\n        /* \"#utility.yul\":3731:3740   */\n      dup6\n        /* \"#utility.yul\":3727:3749   */\n      add\n        /* \"#utility.yul\":3706:3759   */\n      tag_83\n      jump\t// in\n    tag_148:\n        /* \"#utility.yul\":3696:3759   */\n      swap2\n      pop\n        /* \"#utility.yul\":3652:3769   */\n      pop\n        /* \"#utility.yul\":3447:3776   */\n      swap3\n      swap2\n      pop\n      pop\n      jump\t// out\n        /* \"#utility.yul\":3782:3872   */\n    tag_93:\n        /* \"#utility.yul\":3816:3823   */\n      0x00\n        /* \"#utility.yul\":3859:3864   */\n      dup2\n        /* \"#utility.yul\":3852:3865   */\n      iszero\n        /* \"#utility.yul\":3845:3866   */\n      iszero\n        /* \"#utility.yul\":3834:3866   */\n      swap1\n      pop\n        /* \"#utility.yul\":3782:3872   */\n      swap2\n      swap1\n      pop\n      jump\t// out\n        /* \"#utility.yul\":3878:3987   */\n    tag_94:\n        /* \"#utility.yul\":3959:3980   */\n      tag_151\n        /* \"#utility.yul\":3974:3979   */\n      dup2\n        /* \"#utility.yul\":3959:3980   */\n      tag_93\n      jump\t// in\n    tag_151:\n        /* \"#utility.yul\":3954:3957   */\n      dup3\n        /* \"#utility.yul\":3947:3981   */\n      mstore\n        /* \"#utility.yul\":3878:3987   */\n      pop\n      pop\n      jump\t// out\n        /* \"#utility.yul\":3993:4203   */\n    tag_21:\n        /* \"#utility.yul\":4080:4084   */\n      0x00\n        /* \"#utility.yul\":4118:4120   */\n      0x20\n        /* \"#utility.yul\":4107:4116   */\n      dup3\n        /* \"#utility.yul\":4103:4121   */\n      add\n        /* \"#utility.yul\":4095:4121   */\n      swap1\n      pop\n        /* \"#utility.yul\":4131:4196   */\n      tag_153\n        /* \"#utility.yul\":4193:4194   */\n      0x00\n        /* \"#utility.yul\":4182:4191   */\n      dup4\n        /* \"#utility.yul\":4178:4195   */\n      add\n        /* \"#utility.yul\":4169:4175   */\n      dup5\n        /* \"#utility.yul\":4131:4196   */\n      tag_94\n      jump\t// in\n    tag_153:\n        /* \"#utility.yul\":3993:4203   */\n      swap3\n      swap2\n      pop\n      pop\n      jump\t// out\n        /* \"#utility.yul\":4209:4269   */\n    tag_95:\n        /* \"#utility.yul\":4237:4240   */\n      0x00\n        /* \"#utility.yul\":4258:4263   */\n      dup2\n        /* \"#utility.yul\":4251:4263   */\n      swap1\n      pop\n        /* \"#utility.yul\":4209:4269   */\n      swap2\n      swap1\n      pop\n      jump\t// out\n        /* \"#utility.yul\":4275:4417   */\n    tag_96:\n        /* \"#utility.yul\":4325:4334   */\n      0x00\n        /* \"#utility.yul\":4358:4411   */\n      tag_156\n        /* \"#utility.yul\":4376:4410   */\n      tag_157\n        /* \"#utility.yul\":4385:4409   */\n      tag_158\n        /* \"#utility.yul\":4403:4408   */\n      dup5\n        /* \"#utility.yul\":4385:4409   */\n      tag_80\n      jump\t// in\n    tag_158:\n        /* \"#utility.yul\":4376:4410   */\n      tag_95\n      jump\t// in\n    tag_157:\n        /* \"#utility.yul\":4358:4411   */\n      tag_80\n      jump\t// in\n    tag_156:\n        /* \"#utility.yul\":4345:4411   */\n      swap1\n      pop\n        /* \"#utility.yul\":4275:4417   */\n      swap2\n      swap1\n      pop\n      jump\t// out\n        /* \"#utility.yul\":4423:4549   */\n    tag_97:\n        /* \"#utility.yul\":4473:4482   */\n      0x00\n        /* \"#utility.yul\":4506:4543   */\n      tag_160\n        /* \"#utility.yul\":4537:4542   */\n      dup3\n        /* \"#utility.yul\":4506:4543   */\n      tag_96\n      jump\t// in\n    tag_160:\n        /* \"#utility.yul\":4493:4543   */\n      swap1\n      pop\n        /* \"#utility.yul\":4423:4549   */\n      swap2\n      swap1\n      pop\n      jump\t// out\n        /* \"#utility.yul\":4555:4695   */\n    tag_98:\n        /* \"#utility.yul\":4619:4628   */\n      0x00\n        /* \"#utility.yul\":4652:4689   */\n      tag_162\n        /* \"#utility.yul\":4683:4688   */\n      dup3\n        /* \"#utility.yul\":4652:4689   */\n      tag_97\n      jump\t// in\n    tag_162:\n        /* \"#utility.yul\":4639:4689   */\n      swap1\n      pop\n        /* \"#utility.yul\":4555:4695   */\n      swap2\n      swap1\n      pop\n      jump\t// out\n        /* \"#utility.yul\":4701:4860   */\n    tag_99:\n        /* \"#utility.yul\":4802:4853   */\n      tag_164\n        /* \"#utility.yul\":4847:4852   */\n      dup2\n        /* \"#utility.yul\":4802:4853   */\n      tag_98\n      jump\t// in\n    tag_164:\n        /* \"#utility.yul\":4797:4800   */\n      dup3\n        /* \"#utility.yul\":4790:4854   */\n      mstore\n        /* \"#utility.yul\":4701:4860   */\n      pop\n      pop\n      jump\t// out\n        /* \"#utility.yul\":4866:5116   */\n    tag_25:\n        /* \"#utility.yul\":4973:4977   */\n      0x00\n        /* \"#utility.yul\":5011:5013   */\n      0x20\n        /* \"#utility.yul\":5000:5009   */\n      dup3\n        /* \"#utility.yul\":4996:5014   */\n      add\n        /* \"#utility.yul\":4988:5014   */\n      swap1\n      pop\n        /* \"#utility.yul\":5024:5109   */\n      tag_166\n        /* \"#utility.yul\":5106:5107   */\n      0x00\n        /* \"#utility.yul\":5095:5104   */\n      dup4\n        /* \"#utility.yul\":5091:5108   */\n      add\n        /* \"#utility.yul\":5082:5088   */\n      dup5\n        /* \"#utility.yul\":5024:5109   */\n      tag_99\n      jump\t// in\n    tag_166:\n        /* \"#utility.yul\":4866:5116   */\n      swap3\n      swap2\n      pop\n      pop\n      jump\t// out\n        /* \"#utility.yul\":5122:5451   */\n    tag_28:\n        /* \"#utility.yul\":5181:5187   */\n      0x00\n        /* \"#utility.yul\":5230:5232   */\n      0x20\n        /* \"#utility.yul\":5218:5227   */\n      dup3\n        /* \"#utility.yul\":5209:5216   */\n      dup5\n        /* \"#utility.yul\":5205:5228   */\n      sub\n        /* \"#utility.yul\":5201:5233   */\n      slt\n        /* \"#utility.yul\":5198:5317   */\n      iszero\n      tag_168\n      jumpi\n        /* \"#utility.yul\":5236:5315   */\n      tag_169\n      tag_78\n      jump\t// in\n    tag_169:\n        /* \"#utility.yul\":5198:5317   */\n    tag_168:\n        /* \"#utility.yul\":5356:5357   */\n      0x00\n        /* \"#utility.yul\":5381:5434   */\n      tag_170\n        /* \"#utility.yul\":5426:5433   */\n      dup5\n        /* \"#utility.yul\":5417:5423   */\n      dup3\n        /* \"#utility.yul\":5406:5415   */\n      dup6\n        /* \"#utility.yul\":5402:5424   */\n      add\n        /* \"#utility.yul\":5381:5434   */\n      tag_86\n      jump\t// in\n    tag_170:\n        /* \"#utility.yul\":5371:5434   */\n      swap2\n      pop\n        /* \"#utility.yul\":5327:5444   */\n      pop\n        /* \"#utility.yul\":5122:5451   */\n      swap3\n      swap2\n      pop\n      pop\n      jump\t// out\n        /* \"#utility.yul\":5457:5575   */\n    tag_100:\n        /* \"#utility.yul\":5544:5568   */\n      tag_172\n        /* \"#utility.yul\":5562:5567   */\n      dup2\n        /* \"#utility.yul\":5544:5568   */\n      tag_81\n      jump\t// in\n    tag_172:\n        /* \"#utility.yul\":5539:5542   */\n      dup3\n        /* \"#utility.yul\":5532:5569   */\n      mstore\n        /* \"#utility.yul\":5457:5575   */\n      pop\n      pop\n      jump\t// out\n        /* \"#utility.yul\":5581:5803   */\n    tag_31:\n        /* \"#utility.yul\":5674:5678   */\n      0x00\n        /* \"#utility.yul\":5712:5714   */\n      0x20\n        /* \"#utility.yul\":5701:5710   */\n      dup3\n        /* \"#utility.yul\":5697:5715   */\n      add\n        /* \"#utility.yul\":5689:5715   */\n      swap1\n      pop\n        /* \"#utility.yul\":5725:5796   */\n      tag_174\n        /* \"#utility.yul\":5793:5794   */\n      0x00\n        /* \"#utility.yul\":5782:5791   */\n      dup4\n        /* \"#utility.yul\":5778:5795   */\n      add\n        /* \"#utility.yul\":5769:5775   */\n      dup5\n        /* \"#utility.yul\":5725:5796   */\n      tag_100\n      jump\t// in\n    tag_174:\n        /* \"#utility.yul\":5581:5803   */\n      swap3\n      swap2\n      pop\n      pop\n      jump\t// out\n        /* \"#utility.yul\":5809:5927   */\n    tag_101:\n        /* \"#utility.yul\":5896:5920   */\n      tag_176\n        /* \"#utility.yul\":5914:5919   */\n      dup2\n        /* \"#utility.yul\":5896:5920   */\n      tag_84\n      jump\t// in\n    tag_176:\n        /* \"#utility.yul\":5891:5894   */\n      dup3\n        /* \"#utility.yul\":5884:5921   */\n      mstore\n        /* \"#utility.yul\":5809:5927   */\n      pop\n      pop\n      jump\t// out\n        /* \"#utility.yul\":5933:6265   */\n    tag_35:\n        /* \"#utility.yul\":6054:6058   */\n      0x00\n        /* \"#utility.yul\":6092:6094   */\n      0x40\n        /* \"#utility.yul\":6081:6090   */\n      dup3\n        /* \"#utility.yul\":6077:6095   */\n      add\n        /* \"#utility.yul\":6069:6095   */\n      swap1\n      pop\n        /* \"#utility.yul\":6105:6176   */\n      tag_178\n        /* \"#utility.yul\":6173:6174   */\n      0x00\n        /* \"#utility.yul\":6162:6171   */\n      dup4\n        /* \"#utility.yul\":6158:6175   */\n      add\n        /* \"#utility.yul\":6149:6155   */\n      dup6\n        /* \"#utility.yul\":6105:6176   */\n      tag_100\n      jump\t// in\n    tag_178:\n        /* \"#utility.yul\":6186:6258   */\n      tag_179\n        /* \"#utility.yul\":6254:6256   */\n      0x20\n        /* \"#utility.yul\":6243:6252   */\n      dup4\n        /* \"#utility.yul\":6239:6257   */\n      add\n        /* \"#utility.yul\":6230:6236   */\n      dup5\n        /* \"#utility.yul\":6186:6258   */\n      tag_101\n      jump\t// in\n    tag_179:\n        /* \"#utility.yul\":5933:6265   */\n      swap4\n      swap3\n      pop\n      pop\n      pop\n      jump\t// out\n        /* \"#utility.yul\":6271:6350   */\n    tag_102:\n        /* \"#utility.yul\":6310:6317   */\n      0x00\n        /* \"#utility.yul\":6339:6344   */\n      dup2\n        /* \"#utility.yul\":6328:6344   */\n      swap1\n      pop\n        /* \"#utility.yul\":6271:6350   */\n      swap2\n      swap1\n      pop\n      jump\t// out\n        /* \"#utility.yul\":6356:6513   */\n    tag_103:\n        /* \"#utility.yul\":6461:6506   */\n      tag_182\n        /* \"#utility.yul\":6481:6505   */\n      tag_183\n        /* \"#utility.yul\":6499:6504   */\n      dup3\n        /* \"#utility.yul\":6481:6505   */\n      tag_91\n      jump\t// in\n    tag_183:\n        /* \"#utility.yul\":6461:6506   */\n      tag_102\n      jump\t// in\n    tag_182:\n        /* \"#utility.yul\":6456:6459   */\n      dup3\n        /* \"#utility.yul\":6449:6507   */\n      mstore\n        /* \"#utility.yul\":6356:6513   */\n      pop\n      pop\n      jump\t// out\n        /* \"#utility.yul\":6519:6775   */\n    tag_37:\n        /* \"#utility.yul\":6631:6634   */\n      0x00\n        /* \"#utility.yul\":6646:6721   */\n      tag_185\n        /* \"#utility.yul\":6717:6720   */\n      dup3\n        /* \"#utility.yul\":6708:6714   */\n      dup5\n        /* \"#utility.yul\":6646:6721   */\n      tag_103\n      jump\t// in\n    tag_185:\n        /* \"#utility.yul\":6746:6748   */\n      0x20\n        /* \"#utility.yul\":6741:6744   */\n      dup3\n        /* \"#utility.yul\":6737:6749   */\n      add\n        /* \"#utility.yul\":6730:6749   */\n      swap2\n      pop\n        /* \"#utility.yul\":6766:6769   */\n      dup2\n        /* \"#utility.yul\":6759:6769   */\n      swap1\n      pop\n        /* \"#utility.yul\":6519:6775   */\n      swap3\n      swap2\n      pop\n      pop\n      jump\t// out\n        /* \"#utility.yul\":6781:6961   */\n    tag_62:\n        /* \"#utility.yul\":6829:6906   */\n      0x4e487b7100000000000000000000000000000000000000000000000000000000\n        /* \"#utility.yul\":6826:6827   */\n      0x00\n        /* \"#utility.yul\":6819:6907   */\n      mstore\n        /* \"#utility.yul\":6926:6930   */\n      0x32\n        /* \"#utility.yul\":6923:6924   */\n      0x04\n        /* \"#utility.yul\":6916:6931   */\n      mstore\n        /* \"#utility.yul\":6950:6954   */\n      0x24\n        /* \"#utility.yul\":6947:6948   */\n      0x00\n        /* \"#utility.yul\":6940:6955   */\n      revert\n\n    auxdata: 0xa26469706673582212202309e96629ac95efe75618452771002e02ff5bc35dedcdc6591d71e6a34bfd3664736f6c634300081e0033\n}\n",
				"bytecode": {
					"linkReferences": {},
					"object": "60c060405234801561000f575f5ffd5b50604051610adb380380610adb83398181016040528101906100319190610116565b81608081815250508073ffffffffffffffffffffffffffffffffffffffff1660a08173ffffffffffffffffffffffffffffffffffffffff16815250505050610154565b5f5ffd5b5f819050919050565b61008a81610078565b8114610094575f5ffd5b50565b5f815190506100a581610081565b92915050565b5f73ffffffffffffffffffffffffffffffffffffffff82169050919050565b5f6100d4826100ab565b9050919050565b5f6100e5826100ca565b9050919050565b6100f5816100db565b81146100ff575f5ffd5b50565b5f81519050610110816100ec565b92915050565b5f5f6040838503121561012c5761012b610074565b5b5f61013985828601610097565b925050602061014a85828601610102565b9150509250929050565b60805160a0516109586101835f395f818161031901526103ab01525f818161022a015261036701526109585ff3fe608060405234801561000f575f5ffd5b5060043610610055575f3560e01c80633d13f8741461005957806349590657146100755780634a5aae37146100935780635d70fa3c146100c357806399ae559d146100e1575b5f5ffd5b610073600480360381019061006e91906106be565b610111565b005b61007d610364565b60405161008a9190610747565b60405180910390f35b6100ad60048036038101906100a89190610760565b61038b565b6040516100ba91906107a5565b60405180910390f35b6100cb6103a8565b6040516100d89190610819565b60405180910390f35b6100fb60048036038101906100f69190610832565b6103cf565b604051610108919061086c565b60405180910390f35b60015f8573ffffffffffffffffffffffffffffffffffffffff1673ffffffffffffffffffffffffffffffffffffffff1681526020019081526020015f205f9054906101000a900460ff1615610192576040517f1ac2170b00000000000000000000000000000000000000000000000000000000815260040160405180910390fd5b5f84846040516020016101a6929190610894565b604051602081830303815290604052805190602001206040516020016101cc91906108db565b60405160208183030381529060405280519060200120905061024f8383808060200260200160405190810160405280939291908181526020018383602002808284375f81840152601f19601f820116905080830192505050505050507f000000000000000000000000000000000000000000000000000000000000000083610409565b610285576040517faa894afb00000000000000000000000000000000000000000000000000000000815260040160405180910390fd5b6001805f8773ffffffffffffffffffffffffffffffffffffffff1673ffffffffffffffffffffffffffffffffffffffff1681526020019081526020015f205f6101000a81548160ff0219169083151502179055507f47cee97cb7acd717b3c0aa1435d004cd5b3c8c57d70dbceb4e4458bbd60e39d4858560405161030a929190610894565b60405180910390a161035d85857f000000000000000000000000000000000000000000000000000000000000000073ffffffffffffffffffffffffffffffffffffffff1661041f9092919063ffffffff16565b5050505050565b5f7f0000000000000000000000000000000000000000000000000000000000000000905090565b6001602052805f5260405f205f915054906101000a900460ff1681565b5f7f0000000000000000000000000000000000000000000000000000000000000000905090565b5f81815481106103dd575f80fd5b905f5260205f20015f915054906101000a900473ffffffffffffffffffffffffffffffffffffffff1681565b5f82610415858461049e565b1490509392505050565b610499838473ffffffffffffffffffffffffffffffffffffffff1663a9059cbb8585604051602401610452929190610894565b604051602081830303815290604052915060e01b6020820180517bffffffffffffffffffffffffffffffffffffffffffffffffffffffff83818316178352505050506104ef565b505050565b5f5f8290505f5f90505b84518110156104e4576104d5828683815181106104c8576104c76108f5565b5b602002602001015161058a565b915080806001019150506104a8565b508091505092915050565b5f5f60205f8451602086015f885af18061050e576040513d5f823e3d81fd5b3d92505f519150505f8214610527576001811415610542565b5f8473ffffffffffffffffffffffffffffffffffffffff163b145b1561058457836040517f5274afe700000000000000000000000000000000000000000000000000000000815260040161057b919061086c565b60405180910390fd5b50505050565b5f8183106105a15761059c82846105b4565b6105ac565b6105ab83836105b4565b5b905092915050565b5f825f528160205260405f20905092915050565b5f5ffd5b5f5ffd5b5f73ffffffffffffffffffffffffffffffffffffffff82169050919050565b5f6105f9826105d0565b9050919050565b610609816105ef565b8114610613575f5ffd5b50565b5f8135905061062481610600565b92915050565b5f819050919050565b61063c8161062a565b8114610646575f5ffd5b50565b5f8135905061065781610633565b92915050565b5f5ffd5b5f5ffd5b5f5ffd5b5f5f83601f84011261067e5761067d61065d565b5b8235905067ffffffffffffffff81111561069b5761069a610661565b5b6020830191508360208202830111156106b7576106b6610665565b5b9250929050565b5f5f5f5f606085870312156106d6576106d56105c8565b5b5f6106e387828801610616565b94505060206106f487828801610649565b935050604085013567ffffffffffffffff811115610715576107146105cc565b5b61072187828801610669565b925092505092959194509250565b5f819050919050565b6107418161072f565b82525050565b5f60208201905061075a5f830184610738565b92915050565b5f60208284031215610775576107746105c8565b5b5f61078284828501610616565b91505092915050565b5f8115159050919050565b61079f8161078b565b82525050565b5f6020820190506107b85f830184610796565b92915050565b5f819050919050565b5f6107e16107dc6107d7846105d0565b6107be565b6105d0565b9050919050565b5f6107f2826107c7565b9050919050565b5f610803826107e8565b9050919050565b610813816107f9565b82525050565b5f60208201905061082c5f83018461080a565b92915050565b5f60208284031215610847576108466105c8565b5b5f61085484828501610649565b91505092915050565b610866816105ef565b82525050565b5f60208201905061087f5f83018461085d565b92915050565b61088e8161062a565b82525050565b5f6040820190506108a75f83018561085d565b6108b46020830184610885565b9392505050565b5f819050919050565b6108d56108d08261072f565b6108bb565b82525050565b5f6108e682846108c4565b60208201915081905092915050565b7f4e487b71000000000000000000000000000000000000000000000000000000005f52603260045260245ffdfea26469706673582212202309e96629ac95efe75618452771002e02ff5bc35dedcdc6591d71e6a34bfd3664736f6c634300081e0033",
					"opcodes": "PUSH1 0xC0 PUSH1 0x40 MSTORE CALLVALUE DUP1 ISZERO PUSH2 0xF JUMPI PUSH0 PUSH0 REVERT JUMPDEST POP PUSH1 0x40 MLOAD PUSH2 0xADB CODESIZE SUB DUP1 PUSH2 0xADB DUP4 CODECOPY DUP2 DUP2 ADD PUSH1 0x40 MSTORE DUP2 ADD SWAP1 PUSH2 0x31 SWAP2 SWAP1 PUSH2 0x116 JUMP JUMPDEST DUP2 PUSH1 0x80 DUP2 DUP2 MSTORE POP POP DUP1 PUSH20 0xFFFFFFFFFFFFFFFFFFFFFFFFFFFFFFFFFFFFFFFF AND PUSH1 0xA0 DUP2 PUSH20 0xFFFFFFFFFFFFFFFFFFFFFFFFFFFFFFFFFFFFFFFF AND DUP2 MSTORE POP POP POP POP PUSH2 0x154 JUMP JUMPDEST PUSH0 PUSH0 REVERT JUMPDEST PUSH0 DUP2 SWAP1 POP SWAP2 SWAP1 POP JUMP JUMPDEST PUSH2 0x8A DUP2 PUSH2 0x78 JUMP JUMPDEST DUP2 EQ PUSH2 0x94 JUMPI PUSH0 PUSH0 REVERT JUMPDEST POP JUMP JUMPDEST PUSH0 DUP2 MLOAD SWAP1 POP PUSH2 0xA5 DUP2 PUSH2 0x81 JUMP JUMPDEST SWAP3 SWAP2 POP POP JUMP JUMPDEST PUSH0 PUSH20 0xFFFFFFFFFFFFFFFFFFFFFFFFFFFFFFFFFFFFFFFF DUP3 AND SWAP1 POP SWAP2 SWAP1 POP JUMP JUMPDEST PUSH0 PUSH2 0xD4 DUP3 PUSH2 0xAB JUMP JUMPDEST SWAP1 POP SWAP2 SWAP1 POP JUMP JUMPDEST PUSH0 PUSH2 0xE5 DUP3 PUSH2 0xCA JUMP JUMPDEST SWAP1 POP SWAP2 SWAP1 POP JUMP JUMPDEST PUSH2 0xF5 DUP2 PUSH2 0xDB JUMP JUMPDEST DUP2 EQ PUSH2 0xFF JUMPI PUSH0 PUSH0 REVERT JUMPDEST POP JUMP JUMPDEST PUSH0 DUP2 MLOAD SWAP1 POP PUSH2 0x110 DUP2 PUSH2 0xEC JUMP JUMPDEST SWAP3 SWAP2 POP POP JUMP JUMPDEST PUSH0 PUSH0 PUSH1 0x40 DUP4 DUP6 SUB SLT ISZERO PUSH2 0x12C JUMPI PUSH2 0x12B PUSH2 0x74 JUMP JUMPDEST JUMPDEST PUSH0 PUSH2 0x139 DUP6 DUP3 DUP7 ADD PUSH2 0x97 JUMP JUMPDEST SWAP3 POP POP PUSH1 0x20 PUSH2 0x14A DUP6 DUP3 DUP7 ADD PUSH2 0x102 JUMP JUMPDEST SWAP2 POP POP SWAP3 POP SWAP3 SWAP1 POP JUMP JUMPDEST PUSH1 0x80 MLOAD PUSH1 0xA0 MLOAD PUSH2 0x958 PUSH2 0x183 PUSH0 CODECOPY PUSH0 DUP2 DUP2 PUSH2 0x319 ADD MSTORE PUSH2 0x3AB ADD MSTORE PUSH0 DUP2 DUP2 PUSH2 0x22A ADD MSTORE PUSH2 0x367 ADD MSTORE PUSH2 0x958 PUSH0 RETURN INVALID PUSH1 0x80 PUSH1 0x40 MSTORE CALLVALUE DUP1 ISZERO PUSH2 0xF JUMPI PUSH0 PUSH0 REVERT JUMPDEST POP PUSH1 0x4 CALLDATASIZE LT PUSH2 0x55 JUMPI PUSH0 CALLDATALOAD PUSH1 0xE0 SHR DUP1 PUSH4 0x3D13F874 EQ PUSH2 0x59 JUMPI DUP1 PUSH4 0x49590657 EQ PUSH2 0x75 JUMPI DUP1 PUSH4 0x4A5AAE37 EQ PUSH2 0x93 JUMPI DUP1 PUSH4 0x5D70FA3C EQ PUSH2 0xC3 JUMPI DUP1 PUSH4 0x99AE559D EQ PUSH2 0xE1 JUMPI JUMPDEST PUSH0 PUSH0 REVERT JUMPDEST PUSH2 0x73 PUSH1 0x4 DUP1 CALLDATASIZE SUB DUP2 ADD SWAP1 PUSH2 0x6E SWAP2 SWAP1 PUSH2 0x6BE JUMP JUMPDEST PUSH2 0x111 JUMP JUMPDEST STOP JUMPDEST PUSH2 0x7D PUSH2 0x364 JUMP JUMPDEST PUSH1 0x40 MLOAD PUSH2 0x8A SWAP2 SWAP1 PUSH2 0x747 JUMP JUMPDEST PUSH1 0x40 MLOAD DUP1 SWAP2 SUB SWAP1 RETURN JUMPDEST PUSH2 0xAD PUSH1 0x4 DUP1 CALLDATASIZE SUB DUP2 ADD SWAP1 PUSH2 0xA8 SWAP2 SWAP1 PUSH2 0x760 JUMP JUMPDEST PUSH2 0x38B JUMP JUMPDEST PUSH1 0x40 MLOAD PUSH2 0xBA SWAP2 SWAP1 PUSH2 0x7A5 JUMP JUMPDEST PUSH1 0x40 MLOAD DUP1 SWAP2 SUB SWAP1 RETURN JUMPDEST PUSH2 0xCB PUSH2 0x3A8 JUMP JUMPDEST PUSH1 0x40 MLOAD PUSH2 0xD8 SWAP2 SWAP1 PUSH2 0x819 JUMP JUMPDEST PUSH1 0x40 MLOAD DUP1 SWAP2 SUB SWAP1 RETURN JUMPDEST PUSH2 0xFB PUSH1 0x4 DUP1 CALLDATASIZE SUB DUP2 ADD SWAP1 PUSH2 0xF6 SWAP2 SWAP1 PUSH2 0x832 JUMP JUMPDEST PUSH2 0x3CF JUMP JUMPDEST PUSH1 0x40 MLOAD PUSH2 0x108 SWAP2 SWAP1 PUSH2 0x86C JUMP JUMPDEST PUSH1 0x40 MLOAD DUP1 SWAP2 SUB SWAP1 RETURN JUMPDEST PUSH1 0x1 PUSH0 DUP6 PUSH20 0xFFFFFFFFFFFFFFFFFFFFFFFFFFFFFFFFFFFFFFFF AND PUSH20 0xFFFFFFFFFFFFFFFFFFFFFFFFFFFFFFFFFFFFFFFF AND DUP2 MSTORE PUSH1 0x20 ADD SWAP1 DUP2 MSTORE PUSH1 0x20 ADD PUSH0 KECCAK256 PUSH0 SWAP1 SLOAD SWAP1 PUSH2 0x100 EXP SWAP1 DIV PUSH1 0xFF AND ISZERO PUSH2 0x192 JUMPI PUSH1 0x40 MLOAD PUSH32 0x1AC2170B00000000000000000000000000000000000000000000000000000000 DUP2 MSTORE PUSH1 0x4 ADD PUSH1 0x40 MLOAD DUP1 SWAP2 SUB SWAP1 REVERT JUMPDEST PUSH0 DUP5 DUP5 PUSH1 0x40 MLOAD PUSH1 0x20 ADD PUSH2 0x1A6 SWAP3 SWAP2 SWAP1 PUSH2 0x894 JUMP JUMPDEST PUSH1 0x40 MLOAD PUSH1 0x20 DUP2 DUP4 SUB SUB DUP2 MSTORE SWAP1 PUSH1 0x40 MSTORE DUP1 MLOAD SWAP1 PUSH1 0x20 ADD KECCAK256 PUSH1 0x40 MLOAD PUSH1 0x20 ADD PUSH2 0x1CC SWAP2 SWAP1 PUSH2 0x8DB JUMP JUMPDEST PUSH1 0x40 MLOAD PUSH1 0x20 DUP2 DUP4 SUB SUB DUP2 MSTORE SWAP1 PUSH1 0x40 MSTORE DUP1 MLOAD SWAP1 PUSH1 0x20 ADD KECCAK256 SWAP1 POP PUSH2 0x24F DUP4 DUP4 DUP1 DUP1 PUSH1 0x20 MUL PUSH1 0x20 ADD PUSH1 0x40 MLOAD SWAP1 DUP2 ADD PUSH1 0x40 MSTORE DUP1 SWAP4 SWAP3 SWAP2 SWAP1 DUP2 DUP2 MSTORE PUSH1 0x20 ADD DUP4 DUP4 PUSH1 0x20 MUL DUP1 DUP3 DUP5 CALLDATACOPY PUSH0 DUP2 DUP5 ADD MSTORE PUSH1 0x1F NOT PUSH1 0x1F DUP3 ADD AND SWAP1 POP DUP1 DUP4 ADD SWAP3 POP POP POP POP POP POP POP PUSH32 0x0 DUP4 PUSH2 0x409 JUMP JUMPDEST PUSH2 0x285 JUMPI PUSH1 0x40 MLOAD PUSH32 0xAA894AFB00000000000000000000000000000000000000000000000000000000 DUP2 MSTORE PUSH1 0x4 ADD PUSH1 0x40 MLOAD DUP1 SWAP2 SUB SWAP1 REVERT JUMPDEST PUSH1 0x1 DUP1 PUSH0 DUP8 PUSH20 0xFFFFFFFFFFFFFFFFFFFFFFFFFFFFFFFFFFFFFFFF AND PUSH20 0xFFFFFFFFFFFFFFFFFFFFFFFFFFFFFFFFFFFFFFFF AND DUP2 MSTORE PUSH1 0x20 ADD SWAP1 DUP2 MSTORE PUSH1 0x20 ADD PUSH0 KECCAK256 PUSH0 PUSH2 0x100 EXP DUP2 SLOAD DUP2 PUSH1 0xFF MUL NOT AND SWAP1 DUP4 ISZERO ISZERO MUL OR SWAP1 SSTORE POP PUSH32 0x47CEE97CB7ACD717B3C0AA1435D004CD5B3C8C57D70DBCEB4E4458BBD60E39D4 DUP6 DUP6 PUSH1 0x40 MLOAD PUSH2 0x30A SWAP3 SWAP2 SWAP1 PUSH2 0x894 JUMP JUMPDEST PUSH1 0x40 MLOAD DUP1 SWAP2 SUB SWAP1 LOG1 PUSH2 0x35D DUP6 DUP6 PUSH32 0x0 PUSH20 0xFFFFFFFFFFFFFFFFFFFFFFFFFFFFFFFFFFFFFFFF AND PUSH2 0x41F SWAP1 SWAP3 SWAP2 SWAP1 PUSH4 0xFFFFFFFF AND JUMP JUMPDEST POP POP POP POP POP JUMP JUMPDEST PUSH0 PUSH32 0x0 SWAP1 POP SWAP1 JUMP JUMPDEST PUSH1 0x1 PUSH1 0x20 MSTORE DUP1 PUSH0 MSTORE PUSH1 0x40 PUSH0 KECCAK256 PUSH0 SWAP2 POP SLOAD SWAP1 PUSH2 0x100 EXP SWAP1 DIV PUSH1 0xFF AND DUP2 JUMP JUMPDEST PUSH0 PUSH32 0x0 SWAP1 POP SWAP1 JUMP JUMPDEST PUSH0 DUP2 DUP2 SLOAD DUP2 LT PUSH2 0x3DD JUMPI PUSH0 DUP1 REVERT JUMPDEST SWAP1 PUSH0 MSTORE PUSH1 0x20 PUSH0 KECCAK256 ADD PUSH0 SWAP2 POP SLOAD SWAP1 PUSH2 0x100 EXP SWAP1 DIV PUSH20 0xFFFFFFFFFFFFFFFFFFFFFFFFFFFFFFFFFFFFFFFF AND DUP2 JUMP JUMPDEST PUSH0 DUP3 PUSH2 0x415 DUP6 DUP5 PUSH2 0x49E JUMP JUMPDEST EQ SWAP1 POP SWAP4 SWAP3 POP POP POP JUMP JUMPDEST PUSH2 0x499 DUP4 DUP5 PUSH20 0xFFFFFFFFFFFFFFFFFFFFFFFFFFFFFFFFFFFFFFFF AND PUSH4 0xA9059CBB DUP6 DUP6 PUSH1 0x40 MLOAD PUSH1 0x24 ADD PUSH2 0x452 SWAP3 SWAP2 SWAP1 PUSH2 0x894 JUMP JUMPDEST PUSH1 0x40 MLOAD PUSH1 0x20 DUP2 DUP4 SUB SUB DUP2 MSTORE SWAP1 PUSH1 0x40 MSTORE SWAP2 POP PUSH1 0xE0 SHL PUSH1 0x20 DUP3 ADD DUP1 MLOAD PUSH28 0xFFFFFFFFFFFFFFFFFFFFFFFFFFFFFFFFFFFFFFFFFFFFFFFFFFFFFFFF DUP4 DUP2 DUP4 AND OR DUP4 MSTORE POP POP POP POP PUSH2 0x4EF JUMP JUMPDEST POP POP POP JUMP JUMPDEST PUSH0 PUSH0 DUP3 SWAP1 POP PUSH0 PUSH0 SWAP1 POP JUMPDEST DUP5 MLOAD DUP2 LT ISZERO PUSH2 0x4E4 JUMPI PUSH2 0x4D5 DUP3 DUP7 DUP4 DUP2 MLOAD DUP2 LT PUSH2 0x4C8 JUMPI PUSH2 0x4C7 PUSH2 0x8F5 JUMP JUMPDEST JUMPDEST PUSH1 0x20 MUL PUSH1 0x20 ADD ADD MLOAD PUSH2 0x58A JUMP JUMPDEST SWAP2 POP DUP1 DUP1 PUSH1 0x1 ADD SWAP2 POP POP PUSH2 0x4A8 JUMP JUMPDEST POP DUP1 SWAP2 POP POP SWAP3 SWAP2 POP POP JUMP JUMPDEST PUSH0 PUSH0 PUSH1 0x20 PUSH0 DUP5 MLOAD PUSH1 0x20 DUP7 ADD PUSH0 DUP9 GAS CALL DUP1 PUSH2 0x50E JUMPI PUSH1 0x40 MLOAD RETURNDATASIZE PUSH0 DUP3 RETURNDATACOPY RETURNDATASIZE DUP2 REVERT JUMPDEST RETURNDATASIZE SWAP3 POP PUSH0 MLOAD SWAP2 POP POP PUSH0 DUP3 EQ PUSH2 0x527 JUMPI PUSH1 0x1 DUP2 EQ ISZERO PUSH2 0x542 JUMP JUMPDEST PUSH0 DUP5 PUSH20 0xFFFFFFFFFFFFFFFFFFFFFFFFFFFFFFFFFFFFFFFF AND EXTCODESIZE EQ JUMPDEST ISZERO PUSH2 0x584 JUMPI DUP4 PUSH1 0x40 MLOAD PUSH32 0x5274AFE700000000000000000000000000000000000000000000000000000000 DUP2 MSTORE PUSH1 0x4 ADD PUSH2 0x57B SWAP2 SWAP1 PUSH2 0x86C JUMP JUMPDEST PUSH1 0x40 MLOAD DUP1 SWAP2 SUB SWAP1 REVERT JUMPDEST POP POP POP POP JUMP JUMPDEST PUSH0 DUP2 DUP4 LT PUSH2 0x5A1 JUMPI PUSH2 0x59C DUP3 DUP5 PUSH2 0x5B4 JUMP JUMPDEST PUSH2 0x5AC JUMP JUMPDEST PUSH2 0x5AB DUP4 DUP4 PUSH2 0x5B4 JUMP JUMPDEST JUMPDEST SWAP1 POP SWAP3 SWAP2 POP POP JUMP JUMPDEST PUSH0 DUP3 PUSH0 MSTORE DUP2 PUSH1 0x20 MSTORE PUSH1 0x40 PUSH0 KECCAK256 SWAP1 POP SWAP3 SWAP2 POP POP JUMP JUMPDEST PUSH0 PUSH0 REVERT JUMPDEST PUSH0 PUSH0 REVERT JUMPDEST PUSH0 PUSH20 0xFFFFFFFFFFFFFFFFFFFFFFFFFFFFFFFFFFFFFFFF DUP3 AND SWAP1 POP SWAP2 SWAP1 POP JUMP JUMPDEST PUSH0 PUSH2 0x5F9 DUP3 PUSH2 0x5D0 JUMP JUMPDEST SWAP1 POP SWAP2 SWAP1 POP JUMP JUMPDEST PUSH2 0x609 DUP2 PUSH2 0x5EF JUMP JUMPDEST DUP2 EQ PUSH2 0x613 JUMPI PUSH0 PUSH0 REVERT JUMPDEST POP JUMP JUMPDEST PUSH0 DUP2 CALLDATALOAD SWAP1 POP PUSH2 0x624 DUP2 PUSH2 0x600 JUMP JUMPDEST SWAP3 SWAP2 POP POP JUMP JUMPDEST PUSH0 DUP2 SWAP1 POP SWAP2 SWAP1 POP JUMP JUMPDEST PUSH2 0x63C DUP2 PUSH2 0x62A JUMP JUMPDEST DUP2 EQ PUSH2 0x646 JUMPI PUSH0 PUSH0 REVERT JUMPDEST POP JUMP JUMPDEST PUSH0 DUP2 CALLDATALOAD SWAP1 POP PUSH2 0x657 DUP2 PUSH2 0x633 JUMP JUMPDEST SWAP3 SWAP2 POP POP JUMP JUMPDEST PUSH0 PUSH0 REVERT JUMPDEST PUSH0 PUSH0 REVERT JUMPDEST PUSH0 PUSH0 REVERT JUMPDEST PUSH0 PUSH0 DUP4 PUSH1 0x1F DUP5 ADD SLT PUSH2 0x67E JUMPI PUSH2 0x67D PUSH2 0x65D JUMP JUMPDEST JUMPDEST DUP3 CALLDATALOAD SWAP1 POP PUSH8 0xFFFFFFFFFFFFFFFF DUP2 GT ISZERO PUSH2 0x69B JUMPI PUSH2 0x69A PUSH2 0x661 JUMP JUMPDEST JUMPDEST PUSH1 0x20 DUP4 ADD SWAP2 POP DUP4 PUSH1 0x20 DUP3 MUL DUP4 ADD GT ISZERO PUSH2 0x6B7 JUMPI PUSH2 0x6B6 PUSH2 0x665 JUMP JUMPDEST JUMPDEST SWAP3 POP SWAP3 SWAP1 POP JUMP JUMPDEST PUSH0 PUSH0 PUSH0 PUSH0 PUSH1 0x60 DUP6 DUP8 SUB SLT ISZERO PUSH2 0x6D6 JUMPI PUSH2 0x6D5 PUSH2 0x5C8 JUMP JUMPDEST JUMPDEST PUSH0 PUSH2 0x6E3 DUP8 DUP3 DUP9 ADD PUSH2 0x616 JUMP JUMPDEST SWAP5 POP POP PUSH1 0x20 PUSH2 0x6F4 DUP8 DUP3 DUP9 ADD PUSH2 0x649 JUMP JUMPDEST SWAP4 POP POP PUSH1 0x40 DUP6 ADD CALLDATALOAD PUSH8 0xFFFFFFFFFFFFFFFF DUP2 GT ISZERO PUSH2 0x715 JUMPI PUSH2 0x714 PUSH2 0x5CC JUMP JUMPDEST JUMPDEST PUSH2 0x721 DUP8 DUP3 DUP9 ADD PUSH2 0x669 JUMP JUMPDEST SWAP3 POP SWAP3 POP POP SWAP3 SWAP6 SWAP2 SWAP5 POP SWAP3 POP JUMP JUMPDEST PUSH0 DUP2 SWAP1 POP SWAP2 SWAP1 POP JUMP JUMPDEST PUSH2 0x741 DUP2 PUSH2 0x72F JUMP JUMPDEST DUP3 MSTORE POP POP JUMP JUMPDEST PUSH0 PUSH1 0x20 DUP3 ADD SWAP1 POP PUSH2 0x75A PUSH0 DUP4 ADD DUP5 PUSH2 0x738 JUMP JUMPDEST SWAP3 SWAP2 POP POP JUMP JUMPDEST PUSH0 PUSH1 0x20 DUP3 DUP5 SUB SLT ISZERO PUSH2 0x775 JUMPI PUSH2 0x774 PUSH2 0x5C8 JUMP JUMPDEST JUMPDEST PUSH0 PUSH2 0x782 DUP5 DUP3 DUP6 ADD PUSH2 0x616 JUMP JUMPDEST SWAP2 POP POP SWAP3 SWAP2 POP POP JUMP JUMPDEST PUSH0 DUP2 ISZERO ISZERO SWAP1 POP SWAP2 SWAP1 POP JUMP JUMPDEST PUSH2 0x79F DUP2 PUSH2 0x78B JUMP JUMPDEST DUP3 MSTORE POP POP JUMP JUMPDEST PUSH0 PUSH1 0x20 DUP3 ADD SWAP1 POP PUSH2 0x7B8 PUSH0 DUP4 ADD DUP5 PUSH2 0x796 JUMP JUMPDEST SWAP3 SWAP2 POP POP JUMP JUMPDEST PUSH0 DUP2 SWAP1 POP SWAP2 SWAP1 POP JUMP JUMPDEST PUSH0 PUSH2 0x7E1 PUSH2 0x7DC PUSH2 0x7D7 DUP5 PUSH2 0x5D0 JUMP JUMPDEST PUSH2 0x7BE JUMP JUMPDEST PUSH2 0x5D0 JUMP JUMPDEST SWAP1 POP SWAP2 SWAP1 POP JUMP JUMPDEST PUSH0 PUSH2 0x7F2 DUP3 PUSH2 0x7C7 JUMP JUMPDEST SWAP1 POP SWAP2 SWAP1 POP JUMP JUMPDEST PUSH0 PUSH2 0x803 DUP3 PUSH2 0x7E8 JUMP JUMPDEST SWAP1 POP SWAP2 SWAP1 POP JUMP JUMPDEST PUSH2 0x813 DUP2 PUSH2 0x7F9 JUMP JUMPDEST DUP3 MSTORE POP POP JUMP JUMPDEST PUSH0 PUSH1 0x20 DUP3 ADD SWAP1 POP PUSH2 0x82C PUSH0 DUP4 ADD DUP5 PUSH2 0x80A JUMP JUMPDEST SWAP3 SWAP2 POP POP JUMP JUMPDEST PUSH0 PUSH1 0x20 DUP3 DUP5 SUB SLT ISZERO PUSH2 0x847 JUMPI PUSH2 0x846 PUSH2 0x5C8 JUMP JUMPDEST JUMPDEST PUSH0 PUSH2 0x854 DUP5 DUP3 DUP6 ADD PUSH2 0x649 JUMP JUMPDEST SWAP2 POP POP SWAP3 SWAP2 POP POP JUMP JUMPDEST PUSH2 0x866 DUP2 PUSH2 0x5EF JUMP JUMPDEST DUP3 MSTORE POP POP JUMP JUMPDEST PUSH0 PUSH1 0x20 DUP3 ADD SWAP1 POP PUSH2 0x87F PUSH0 DUP4 ADD DUP5 PUSH2 0x85D JUMP JUMPDEST SWAP3 SWAP2 POP POP JUMP JUMPDEST PUSH2 0x88E DUP2 PUSH2 0x62A JUMP JUMPDEST DUP3 MSTORE POP POP JUMP JUMPDEST PUSH0 PUSH1 0x40 DUP3 ADD SWAP1 POP PUSH2 0x8A7 PUSH0 DUP4 ADD DUP6 PUSH2 0x85D JUMP JUMPDEST PUSH2 0x8B4 PUSH1 0x20 DUP4 ADD DUP5 PUSH2 0x885 JUMP JUMPDEST SWAP4 SWAP3 POP POP POP JUMP JUMPDEST PUSH0 DUP2 SWAP1 POP SWAP2 SWAP1 POP JUMP JUMPDEST PUSH2 0x8D5 PUSH2 0x8D0 DUP3 PUSH2 0x72F JUMP JUMPDEST PUSH2 0x8BB JUMP JUMPDEST DUP3 MSTORE POP POP JUMP JUMPDEST PUSH0 PUSH2 0x8E6 DUP3 DUP5 PUSH2 0x8C4 JUMP JUMPDEST PUSH1 0x20 DUP3 ADD SWAP2 POP DUP2 SWAP1 POP SWAP3 SWAP2 POP POP JUMP JUMPDEST PUSH32 0x4E487B7100000000000000000000000000000000000000000000000000000000 PUSH0 MSTORE PUSH1 0x32 PUSH1 0x4 MSTORE PUSH1 0x24 PUSH0 REVERT INVALID LOG2 PUSH5 0x6970667358 0x22 SLT KECCAK256 0x23 MULMOD 0xE9 PUSH7 0x29AC95EFE75618 GASLIMIT 0x27 PUSH18 0x2E02FF5BC35DEDCDC6591D71E6A34BFD36 PUSH5 0x736F6C6343 STOP ADDMOD 0x1E STOP CALLER "
				},
				"gasEstimates": {
					"creation": {
						"codeDepositCost": "478400",
						"executionCost": "infinite",
						"totalCost": "infinite"
					},
					"external": {
						"claim(address,uint256,bytes32[])": "infinite",
						"claimers(uint256)": "5009",
						"getAirdroptoken()": "infinite",
						"getMerkleRoot()": "infinite",
						"s_hasClaimed(address)": "2855"
					}
				},
				"methodIdentifiers": {
					"claim(address,uint256,bytes32[])": "3d13f874",
					"claimers(uint256)": "99ae559d",
					"getAirdroptoken()": "5d70fa3c",
					"getMerkleRoot()": "49590657",
					"s_hasClaimed(address)": "4a5aae37"
				}
			},
			"storageLayout": {
				"storage": [
					{
						"astId": 1780,
						"contract": "src/MerkleAirdrop.sol:MerkleAirdrop",
						"label": "claimers",
						"offset": 0,
						"slot": "0",
						"type": "t_array(t_address)dyn_storage"
					},
					{
						"astId": 1789,
						"contract": "src/MerkleAirdrop.sol:MerkleAirdrop",
						"label": "s_hasClaimed",
						"offset": 0,
						"slot": "1",
						"type": "t_mapping(t_address,t_bool)"
					}
				],
				"types": {
					"t_address": {
						"encoding": "inplace",
						"label": "address",
						"numberOfBytes": "20"
					},
					"t_array(t_address)dyn_storage": {
						"base": "t_address",
						"encoding": "dynamic_array",
						"label": "address[]",
						"numberOfBytes": "32"
					},
					"t_bool": {
						"encoding": "inplace",
						"label": "bool",
						"numberOfBytes": "1"
					},
					"t_mapping(t_address,t_bool)": {
						"encoding": "mapping",
						"key": "t_address",
						"label": "mapping(address => bool)",
						"numberOfBytes": "32",
						"value": "t_bool"
					}
				}
			},
			"userdoc": {
				"kind": "user",
				"methods": {},
				"version": 1
			}
		}
	}
}