{
	"data": {
		"bytecode": {
			"linkReferences": {},
			"object": "608060405273f39fd6e51aad88f6f4ce6ab8827279cfffb922665f5f6101000a81548173ffffffffffffffffffffffffffffffffffffffff021916908373ffffffffffffffffffffffffffffffffffffffff16021790555068015af1d78b58c400006001557f0fd7c981d39bece61f7499702bf59b3114a90e66b51ba2c53abdf7b62986c00a5f1b6002557fe5ebd1e1b5a5478a944ecab36a9a954ac3b6b8216875f6524caa7a1d870965765f1b6003556040518060400160405280600254815260200160035481525060049060026100d9929190610113565b50604051806080016040528060418152602001610d34604191396005908161010191906103b6565b5034801561010d575f5ffd5b50610485565b828054828255905f5260205f2090810192821561014d579160200282015b8281111561014c578251825591602001919060010190610131565b5b50905061015a919061015e565b5090565b5b80821115610175575f815f90555060010161015f565b5090565b5f81519050919050565b7f4e487b71000000000000000000000000000000000000000000000000000000005f52604160045260245ffd5b7f4e487b71000000000000000000000000000000000000000000000000000000005f52602260045260245ffd5b5f60028204905060018216806101f457607f821691505b602082108103610207576102066101b0565b5b50919050565b5f819050815f5260205f209050919050565b5f6020601f8301049050919050565b5f82821b905092915050565b5f600883026102697fffffffffffffffffffffffffffffffffffffffffffffffffffffffffffffffff8261022e565b610273868361022e565b95508019841693508086168417925050509392505050565b5f819050919050565b5f819050919050565b5f6102b76102b26102ad8461028b565b610294565b61028b565b9050919050565b5f819050919050565b6102d08361029d565b6102e46102dc826102be565b84845461023a565b825550505050565b5f5f905090565b6102fb6102ec565b6103068184846102c7565b505050565b5b818110156103295761031e5f826102f3565b60018101905061030c565b5050565b601f82111561036e5761033f8161020d565b6103488461021f565b81016020851015610357578190505b61036b6103638561021f565b83018261030b565b50505b505050565b5f82821c905092915050565b5f61038e5f1984600802610373565b1980831691505092915050565b5f6103a6838361037f565b9150826002028217905092915050565b6103bf82610179565b67ffffffffffffffff8111156103d8576103d7610183565b5b6103e282546101dd565b6103ed82828561032d565b5f60209050601f83116001811461041e575f841561040c578287015190505b610416858261039b565b86555061047d565b601f19841661042c8661020d565b5f5b828110156104535784890151825560018201915060208501945060208101905061042e565b86831015610470578489015161046c601f89168261037f565b8355505b6001600288020188555050505b505050505050565b6108a2806104925f395ff3fe608060405234801561000f575f5ffd5b506004361061004a575f3560e01c80633a7684631461004e57806365f8c6c51461006c578063a7bb580314610088578063c0406226146100ba575b5f5ffd5b6100566100c4565b6040516100639190610407565b60405180910390f35b6100866004803603810190610081919061046c565b6100f0565b005b6100a2600480360381019061009d91906105d3565b61032f565b6040516100b19392919061064d565b60405180910390f35b6100c261038b565b005b7f885cb69240a935d632d79c317109709ecfa91a80626ff3989d68f67f5b1dd12d5f1c60601b60601c81565b7f885cb69240a935d632d79c317109709ecfa91a80626ff3989d68f67f5b1dd12d5f1c60601b60601c73ffffffffffffffffffffffffffffffffffffffff16637fb5297f6040518163ffffffff1660e01b81526004015f604051808303815f87803b15801561015d575f5ffd5b505af115801561016f573d5f5f3e3d5ffd5b505050505f5f5f61020760058054610186906106af565b80601f01602080910402602001604051908101604052809291908181526020018280546101b2906106af565b80156101fd5780601f106101d4576101008083540402835291602001916101fd565b820191905f5260205f20905b8154815290600101906020018083116101e057829003601f168201915b505050505061032f565b8093508194508295505050508373ffffffffffffffffffffffffffffffffffffffff16634497a1695f5f9054906101000a900473ffffffffffffffffffffffffffffffffffffffff1660015460048787876040518763ffffffff1660e01b815260040161027996959493929190610806565b5f604051808303815f87803b158015610290575f5ffd5b505af11580156102a2573d5f5f3e3d5ffd5b505050507f885cb69240a935d632d79c317109709ecfa91a80626ff3989d68f67f5b1dd12d5f1c60601b60601c73ffffffffffffffffffffffffffffffffffffffff166376eadd366040518163ffffffff1660e01b81526004015f604051808303815f87803b158015610313575f5ffd5b505af1158015610325573d5f5f3e3d5ffd5b5050505050505050565b5f5f5f604184511461036d576040517f18b9856b00000000000000000000000000000000000000000000000000000000815260040160405180910390fd5b602084015191506040840151905060608401515f1a92509193909250565b565b5f73ffffffffffffffffffffffffffffffffffffffff82169050919050565b5f819050919050565b5f6103cf6103ca6103c58461038d565b6103ac565b61038d565b9050919050565b5f6103e0826103b5565b9050919050565b5f6103f1826103d6565b9050919050565b610401816103e7565b82525050565b5f60208201905061041a5f8301846103f8565b92915050565b5f604051905090565b5f5ffd5b5f5ffd5b5f61043b8261038d565b9050919050565b61044b81610431565b8114610455575f5ffd5b50565b5f8135905061046681610442565b92915050565b5f6020828403121561048157610480610429565b5b5f61048e84828501610458565b91505092915050565b5f5ffd5b5f5ffd5b5f601f19601f8301169050919050565b7f4e487b71000000000000000000000000000000000000000000000000000000005f52604160045260245ffd5b6104e58261049f565b810181811067ffffffffffffffff82111715610504576105036104af565b5b80604052505050565b5f610516610420565b905061052282826104dc565b919050565b5f67ffffffffffffffff821115610541576105406104af565b5b61054a8261049f565b9050602081019050919050565b828183375f83830152505050565b5f61057761057284610527565b61050d565b9050828152602081018484840111156105935761059261049b565b5b61059e848285610557565b509392505050565b5f82601f8301126105ba576105b9610497565b5b81356105ca848260208601610565565b91505092915050565b5f602082840312156105e8576105e7610429565b5b5f82013567ffffffffffffffff8111156106055761060461042d565b5b610611848285016105a6565b91505092915050565b5f60ff82169050919050565b61062f8161061a565b82525050565b5f819050919050565b61064781610635565b82525050565b5f6060820190506106605f830186610626565b61066d602083018561063e565b61067a604083018461063e565b949350505050565b7f4e487b71000000000000000000000000000000000000000000000000000000005f52602260045260245ffd5b5f60028204905060018216806106c657607f821691505b6020821081036106d9576106d8610682565b5b50919050565b6106e881610431565b82525050565b5f819050919050565b610700816106ee565b82525050565b5f81549050919050565b5f82825260208201905092915050565b5f819050815f5260205f209050919050565b61073b81610635565b82525050565b5f61074c8383610732565b60208301905092915050565b5f815f1c9050919050565b5f819050919050565b5f61077e61077983610758565b610763565b9050919050565b5f610790825461076c565b9050919050565b5f600182019050919050565b5f6107ad82610706565b6107b78185610710565b93506107c283610720565b805f5b838110156107f9576107d682610785565b6107e08882610741565b97506107eb83610797565b9250506001810190506107c5565b5085935050505092915050565b5f60c0820190506108195f8301896106df565b61082660208301886106f7565b818103604083015261083881876107a3565b90506108476060830186610626565b610854608083018561063e565b61086160a083018461063e565b97965050505050505056fea26469706673582212201d102b528bbf2fdb93476a8f2962b35347d207e0e7852bf21494d63044deb0d864736f6c634300081e0033fbd2270e6f23fb5fe9248480c0f4be8a4e9bd77c3ad0b1333cc60b5debc511602a2a06c24085d8d7c038bad84edc53664c8ce0346caeaa3570afec0e61144dc11c",
			"opcodes": "PUSH1 0x80 PUSH1 0x40 MSTORE PUSH20 0xF39FD6E51AAD88F6F4CE6AB8827279CFFFB92266 PUSH0 PUSH0 PUSH2 0x100 EXP DUP2 SLOAD DUP2 PUSH20 0xFFFFFFFFFFFFFFFFFFFFFFFFFFFFFFFFFFFFFFFF MUL NOT AND SWAP1 DUP4 PUSH20 0xFFFFFFFFFFFFFFFFFFFFFFFFFFFFFFFFFFFFFFFF AND MUL OR SWAP1 SSTORE POP PUSH9 0x15AF1D78B58C40000 PUSH1 0x1 SSTORE PUSH32 0xFD7C981D39BECE61F7499702BF59B3114A90E66B51BA2C53ABDF7B62986C00A PUSH0 SHL PUSH1 0x2 SSTORE PUSH32 0xE5EBD1E1B5A5478A944ECAB36A9A954AC3B6B8216875F6524CAA7A1D87096576 PUSH0 SHL PUSH1 0x3 SSTORE PUSH1 0x40 MLOAD DUP1 PUSH1 0x40 ADD PUSH1 0x40 MSTORE DUP1 PUSH1 0x2 SLOAD DUP2 MSTORE PUSH1 0x20 ADD PUSH1 0x3 SLOAD DUP2 MSTORE POP PUSH1 0x4 SWAP1 PUSH1 0x2 PUSH2 0xD9 SWAP3 SWAP2 SWAP1 PUSH2 0x113 JUMP JUMPDEST POP PUSH1 0x40 MLOAD DUP1 PUSH1 0x80 ADD PUSH1 0x40 MSTORE DUP1 PUSH1 0x41 DUP2 MSTORE PUSH1 0x20 ADD PUSH2 0xD34 PUSH1 0x41 SWAP2 CODECOPY PUSH1 0x5 SWAP1 DUP2 PUSH2 0x101 SWAP2 SWAP1 PUSH2 0x3B6 JUMP JUMPDEST POP CALLVALUE DUP1 ISZERO PUSH2 0x10D JUMPI PUSH0 PUSH0 REVERT JUMPDEST POP PUSH2 0x485 JUMP JUMPDEST DUP3 DUP1 SLOAD DUP3 DUP3 SSTORE SWAP1 PUSH0 MSTORE PUSH1 0x20 PUSH0 KECCAK256 SWAP1 DUP2 ADD SWAP3 DUP3 ISZERO PUSH2 0x14D JUMPI SWAP2 PUSH1 0x20 MUL DUP3 ADD JUMPDEST DUP3 DUP2 GT ISZERO PUSH2 0x14C JUMPI DUP3 MLOAD DUP3 SSTORE SWAP2 PUSH1 0x20 ADD SWAP2 SWAP1 PUSH1 0x1 ADD SWAP1 PUSH2 0x131 JUMP JUMPDEST JUMPDEST POP SWAP1 POP PUSH2 0x15A SWAP2 SWAP1 PUSH2 0x15E JUMP JUMPDEST POP SWAP1 JUMP JUMPDEST JUMPDEST DUP1 DUP3 GT ISZERO PUSH2 0x175 JUMPI PUSH0 DUP2 PUSH0 SWAP1 SSTORE POP PUSH1 0x1 ADD PUSH2 0x15F JUMP JUMPDEST POP SWAP1 JUMP JUMPDEST PUSH0 DUP2 MLOAD SWAP1 POP SWAP2 SWAP1 POP JUMP JUMPDEST PUSH32 0x4E487B7100000000000000000000000000000000000000000000000000000000 PUSH0 MSTORE PUSH1 0x41 PUSH1 0x4 MSTORE PUSH1 0x24 PUSH0 REVERT JUMPDEST PUSH32 0x4E487B7100000000000000000000000000000000000000000000000000000000 PUSH0 MSTORE PUSH1 0x22 PUSH1 0x4 MSTORE PUSH1 0x24 PUSH0 REVERT JUMPDEST PUSH0 PUSH1 0x2 DUP3 DIV SWAP1 POP PUSH1 0x1 DUP3 AND DUP1 PUSH2 0x1F4 JUMPI PUSH1 0x7F DUP3 AND SWAP2 POP JUMPDEST PUSH1 0x20 DUP3 LT DUP2 SUB PUSH2 0x207 JUMPI PUSH2 0x206 PUSH2 0x1B0 JUMP JUMPDEST JUMPDEST POP SWAP2 SWAP1 POP JUMP JUMPDEST PUSH0 DUP2 SWAP1 POP DUP2 PUSH0 MSTORE PUSH1 0x20 PUSH0 KECCAK256 SWAP1 POP SWAP2 SWAP1 POP JUMP JUMPDEST PUSH0 PUSH1 0x20 PUSH1 0x1F DUP4 ADD DIV SWAP1 POP SWAP2 SWAP1 POP JUMP JUMPDEST PUSH0 DUP3 DUP3 SHL SWAP1 POP SWAP3 SWAP2 POP POP JUMP JUMPDEST PUSH0 PUSH1 0x8 DUP4 MUL PUSH2 0x269 PUSH32 0xFFFFFFFFFFFFFFFFFFFFFFFFFFFFFFFFFFFFFFFFFFFFFFFFFFFFFFFFFFFFFFFF DUP3 PUSH2 0x22E JUMP JUMPDEST PUSH2 0x273 DUP7 DUP4 PUSH2 0x22E JUMP JUMPDEST SWAP6 POP DUP1 NOT DUP5 AND SWAP4 POP DUP1 DUP7 AND DUP5 OR SWAP3 POP POP POP SWAP4 SWAP3 POP POP POP JUMP JUMPDEST PUSH0 DUP2 SWAP1 POP SWAP2 SWAP1 POP JUMP JUMPDEST PUSH0 DUP2 SWAP1 POP SWAP2 SWAP1 POP JUMP JUMPDEST PUSH0 PUSH2 0x2B7 PUSH2 0x2B2 PUSH2 0x2AD DUP5 PUSH2 0x28B JUMP JUMPDEST PUSH2 0x294 JUMP JUMPDEST PUSH2 0x28B JUMP JUMPDEST SWAP1 POP SWAP2 SWAP1 POP JUMP JUMPDEST PUSH0 DUP2 SWAP1 POP SWAP2 SWAP1 POP JUMP JUMPDEST PUSH2 0x2D0 DUP4 PUSH2 0x29D JUMP JUMPDEST PUSH2 0x2E4 PUSH2 0x2DC DUP3 PUSH2 0x2BE JUMP JUMPDEST DUP5 DUP5 SLOAD PUSH2 0x23A JUMP JUMPDEST DUP3 SSTORE POP POP POP POP JUMP JUMPDEST PUSH0 PUSH0 SWAP1 POP SWAP1 JUMP JUMPDEST PUSH2 0x2FB PUSH2 0x2EC JUMP JUMPDEST PUSH2 0x306 DUP2 DUP5 DUP5 PUSH2 0x2C7 JUMP JUMPDEST POP POP POP JUMP JUMPDEST JUMPDEST DUP2 DUP2 LT ISZERO PUSH2 0x329 JUMPI PUSH2 0x31E PUSH0 DUP3 PUSH2 0x2F3 JUMP JUMPDEST PUSH1 0x1 DUP2 ADD SWAP1 POP PUSH2 0x30C JUMP JUMPDEST POP POP JUMP JUMPDEST PUSH1 0x1F DUP3 GT ISZERO PUSH2 0x36E JUMPI PUSH2 0x33F DUP2 PUSH2 0x20D JUMP JUMPDEST PUSH2 0x348 DUP5 PUSH2 0x21F JUMP JUMPDEST DUP2 ADD PUSH1 0x20 DUP6 LT ISZERO PUSH2 0x357 JUMPI DUP2 SWAP1 POP JUMPDEST PUSH2 0x36B PUSH2 0x363 DUP6 PUSH2 0x21F JUMP JUMPDEST DUP4 ADD DUP3 PUSH2 0x30B JUMP JUMPDEST POP POP JUMPDEST POP POP POP JUMP JUMPDEST PUSH0 DUP3 DUP3 SHR SWAP1 POP SWAP3 SWAP2 POP POP JUMP JUMPDEST PUSH0 PUSH2 0x38E PUSH0 NOT DUP5 PUSH1 0x8 MUL PUSH2 0x373 JUMP JUMPDEST NOT DUP1 DUP4 AND SWAP2 POP POP SWAP3 SWAP2 POP POP JUMP JUMPDEST PUSH0 PUSH2 0x3A6 DUP4 DUP4 PUSH2 0x37F JUMP JUMPDEST SWAP2 POP DUP3 PUSH1 0x2 MUL DUP3 OR SWAP1 POP SWAP3 SWAP2 POP POP JUMP JUMPDEST PUSH2 0x3BF DUP3 PUSH2 0x179 JUMP JUMPDEST PUSH8 0xFFFFFFFFFFFFFFFF DUP2 GT ISZERO PUSH2 0x3D8 JUMPI PUSH2 0x3D7 PUSH2 0x183 JUMP JUMPDEST JUMPDEST PUSH2 0x3E2 DUP3 SLOAD PUSH2 0x1DD JUMP JUMPDEST PUSH2 0x3ED DUP3 DUP3 DUP6 PUSH2 0x32D JUMP JUMPDEST PUSH0 PUSH1 0x20 SWAP1 POP PUSH1 0x1F DUP4 GT PUSH1 0x1 DUP2 EQ PUSH2 0x41E JUMPI PUSH0 DUP5 ISZERO PUSH2 0x40C JUMPI DUP3 DUP8 ADD MLOAD SWAP1 POP JUMPDEST PUSH2 0x416 DUP6 DUP3 PUSH2 0x39B JUMP JUMPDEST DUP7 SSTORE POP PUSH2 0x47D JUMP JUMPDEST PUSH1 0x1F NOT DUP5 AND PUSH2 0x42C DUP7 PUSH2 0x20D JUMP JUMPDEST PUSH0 JUMPDEST DUP3 DUP2 LT ISZERO PUSH2 0x453 JUMPI DUP5 DUP10 ADD MLOAD DUP3 SSTORE PUSH1 0x1 DUP3 ADD SWAP2 POP PUSH1 0x20 DUP6 ADD SWAP5 POP PUSH1 0x20 DUP2 ADD SWAP1 POP PUSH2 0x42E JUMP JUMPDEST DUP7 DUP4 LT ISZERO PUSH2 0x470 JUMPI DUP5 DUP10 ADD MLOAD PUSH2 0x46C PUSH1 0x1F DUP10 AND DUP3 PUSH2 0x37F JUMP JUMPDEST DUP4 SSTORE POP JUMPDEST PUSH1 0x1 PUSH1 0x2 DUP9 MUL ADD DUP9 SSTORE POP POP POP JUMPDEST POP POP POP POP POP POP JUMP JUMPDEST PUSH2 0x8A2 DUP1 PUSH2 0x492 PUSH0 CODECOPY PUSH0 RETURN INVALID PUSH1 0x80 PUSH1 0x40 MSTORE CALLVALUE DUP1 ISZERO PUSH2 0xF JUMPI PUSH0 PUSH0 REVERT JUMPDEST POP PUSH1 0x4 CALLDATASIZE LT PUSH2 0x4A JUMPI PUSH0 CALLDATALOAD PUSH1 0xE0 SHR DUP1 PUSH4 0x3A768463 EQ PUSH2 0x4E JUMPI DUP1 PUSH4 0x65F8C6C5 EQ PUSH2 0x6C JUMPI DUP1 PUSH4 0xA7BB5803 EQ PUSH2 0x88 JUMPI DUP1 PUSH4 0xC0406226 EQ PUSH2 0xBA JUMPI JUMPDEST PUSH0 PUSH0 REVERT JUMPDEST PUSH2 0x56 PUSH2 0xC4 JUMP JUMPDEST PUSH1 0x40 MLOAD PUSH2 0x63 SWAP2 SWAP1 PUSH2 0x407 JUMP JUMPDEST PUSH1 0x40 MLOAD DUP1 SWAP2 SUB SWAP1 RETURN JUMPDEST PUSH2 0x86 PUSH1 0x4 DUP1 CALLDATASIZE SUB DUP2 ADD SWAP1 PUSH2 0x81 SWAP2 SWAP1 PUSH2 0x46C JUMP JUMPDEST PUSH2 0xF0 JUMP JUMPDEST STOP JUMPDEST PUSH2 0xA2 PUSH1 0x4 DUP1 CALLDATASIZE SUB DUP2 ADD SWAP1 PUSH2 0x9D SWAP2 SWAP1 PUSH2 0x5D3 JUMP JUMPDEST PUSH2 0x32F JUMP JUMPDEST PUSH1 0x40 MLOAD PUSH2 0xB1 SWAP4 SWAP3 SWAP2 SWAP1 PUSH2 0x64D JUMP JUMPDEST PUSH1 0x40 MLOAD DUP1 SWAP2 SUB SWAP1 RETURN JUMPDEST PUSH2 0xC2 PUSH2 0x38B JUMP JUMPDEST STOP JUMPDEST PUSH32 0x885CB69240A935D632D79C317109709ECFA91A80626FF3989D68F67F5B1DD12D PUSH0 SHR PUSH1 0x60 SHL PUSH1 0x60 SHR DUP2 JUMP JUMPDEST PUSH32 0x885CB69240A935D632D79C317109709ECFA91A80626FF3989D68F67F5B1DD12D PUSH0 SHR PUSH1 0x60 SHL PUSH1 0x60 SHR PUSH20 0xFFFFFFFFFFFFFFFFFFFFFFFFFFFFFFFFFFFFFFFF AND PUSH4 0x7FB5297F PUSH1 0x40 MLOAD DUP2 PUSH4 0xFFFFFFFF AND PUSH1 0xE0 SHL DUP2 MSTORE PUSH1 0x4 ADD PUSH0 PUSH1 0x40 MLOAD DUP1 DUP4 SUB DUP2 PUSH0 DUP8 DUP1 EXTCODESIZE ISZERO DUP1 ISZERO PUSH2 0x15D JUMPI PUSH0 PUSH0 REVERT JUMPDEST POP GAS CALL ISZERO DUP1 ISZERO PUSH2 0x16F JUMPI RETURNDATASIZE PUSH0 PUSH0 RETURNDATACOPY RETURNDATASIZE PUSH0 REVERT JUMPDEST POP POP POP POP PUSH0 PUSH0 PUSH0 PUSH2 0x207 PUSH1 0x5 DUP1 SLOAD PUSH2 0x186 SWAP1 PUSH2 0x6AF JUMP JUMPDEST DUP1 PUSH1 0x1F ADD PUSH1 0x20 DUP1 SWAP2 DIV MUL PUSH1 0x20 ADD PUSH1 0x40 MLOAD SWAP1 DUP2 ADD PUSH1 0x40 MSTORE DUP1 SWAP3 SWAP2 SWAP1 DUP2 DUP2 MSTORE PUSH1 0x20 ADD DUP3 DUP1 SLOAD PUSH2 0x1B2 SWAP1 PUSH2 0x6AF JUMP JUMPDEST DUP1 ISZERO PUSH2 0x1FD JUMPI DUP1 PUSH1 0x1F LT PUSH2 0x1D4 JUMPI PUSH2 0x100 DUP1 DUP4 SLOAD DIV MUL DUP4 MSTORE SWAP2 PUSH1 0x20 ADD SWAP2 PUSH2 0x1FD JUMP JUMPDEST DUP3 ADD SWAP2 SWAP1 PUSH0 MSTORE PUSH1 0x20 PUSH0 KECCAK256 SWAP1 JUMPDEST DUP2 SLOAD DUP2 MSTORE SWAP1 PUSH1 0x1 ADD SWAP1 PUSH1 0x20 ADD DUP1 DUP4 GT PUSH2 0x1E0 JUMPI DUP3 SWAP1 SUB PUSH1 0x1F AND DUP3 ADD SWAP2 JUMPDEST POP POP POP POP POP PUSH2 0x32F JUMP JUMPDEST DUP1 SWAP4 POP DUP2 SWAP5 POP DUP3 SWAP6 POP POP POP POP DUP4 PUSH20 0xFFFFFFFFFFFFFFFFFFFFFFFFFFFFFFFFFFFFFFFF AND PUSH4 0x4497A169 PUSH0 PUSH0 SWAP1 SLOAD SWAP1 PUSH2 0x100 EXP SWAP1 DIV PUSH20 0xFFFFFFFFFFFFFFFFFFFFFFFFFFFFFFFFFFFFFFFF AND PUSH1 0x1 SLOAD PUSH1 0x4 DUP8 DUP8 DUP8 PUSH1 0x40 MLOAD DUP8 PUSH4 0xFFFFFFFF AND PUSH1 0xE0 SHL DUP2 MSTORE PUSH1 0x4 ADD PUSH2 0x279 SWAP7 SWAP6 SWAP5 SWAP4 SWAP3 SWAP2 SWAP1 PUSH2 0x806 JUMP JUMPDEST PUSH0 PUSH1 0x40 MLOAD DUP1 DUP4 SUB DUP2 PUSH0 DUP8 DUP1 EXTCODESIZE ISZERO DUP1 ISZERO PUSH2 0x290 JUMPI PUSH0 PUSH0 REVERT JUMPDEST POP GAS CALL ISZERO DUP1 ISZERO PUSH2 0x2A2 JUMPI RETURNDATASIZE PUSH0 PUSH0 RETURNDATACOPY RETURNDATASIZE PUSH0 REVERT JUMPDEST POP POP POP POP PUSH32 0x885CB69240A935D632D79C317109709ECFA91A80626FF3989D68F67F5B1DD12D PUSH0 SHR PUSH1 0x60 SHL PUSH1 0x60 SHR PUSH20 0xFFFFFFFFFFFFFFFFFFFFFFFFFFFFFFFFFFFFFFFF AND PUSH4 0x76EADD36 PUSH1 0x40 MLOAD DUP2 PUSH4 0xFFFFFFFF AND PUSH1 0xE0 SHL DUP2 MSTORE PUSH1 0x4 ADD PUSH0 PUSH1 0x40 MLOAD DUP1 DUP4 SUB DUP2 PUSH0 DUP8 DUP1 EXTCODESIZE ISZERO DUP1 ISZERO PUSH2 0x313 JUMPI PUSH0 PUSH0 REVERT JUMPDEST POP GAS CALL ISZERO DUP1 ISZERO PUSH2 0x325 JUMPI RETURNDATASIZE PUSH0 PUSH0 RETURNDATACOPY RETURNDATASIZE PUSH0 REVERT JUMPDEST POP POP POP POP POP POP POP POP JUMP JUMPDEST PUSH0 PUSH0 PUSH0 PUSH1 0x41 DUP5 MLOAD EQ PUSH2 0x36D JUMPI PUSH1 0x40 MLOAD PUSH32 0x18B9856B00000000000000000000000000000000000000000000000000000000 DUP2 MSTORE PUSH1 0x4 ADD PUSH1 0x40 MLOAD DUP1 SWAP2 SUB SWAP1 REVERT JUMPDEST PUSH1 0x20 DUP5 ADD MLOAD SWAP2 POP PUSH1 0x40 DUP5 ADD MLOAD SWAP1 POP PUSH1 0x60 DUP5 ADD MLOAD PUSH0 BYTE SWAP3 POP SWAP2 SWAP4 SWAP1 SWAP3 POP JUMP JUMPDEST JUMP JUMPDEST PUSH0 PUSH20 0xFFFFFFFFFFFFFFFFFFFFFFFFFFFFFFFFFFFFFFFF DUP3 AND SWAP1 POP SWAP2 SWAP1 POP JUMP JUMPDEST PUSH0 DUP2 SWAP1 POP SWAP2 SWAP1 POP JUMP JUMPDEST PUSH0 PUSH2 0x3CF PUSH2 0x3CA PUSH2 0x3C5 DUP5 PUSH2 0x38D JUMP JUMPDEST PUSH2 0x3AC JUMP JUMPDEST PUSH2 0x38D JUMP JUMPDEST SWAP1 POP SWAP2 SWAP1 POP JUMP JUMPDEST PUSH0 PUSH2 0x3E0 DUP3 PUSH2 0x3B5 JUMP JUMPDEST SWAP1 POP SWAP2 SWAP1 POP JUMP JUMPDEST PUSH0 PUSH2 0x3F1 DUP3 PUSH2 0x3D6 JUMP JUMPDEST SWAP1 POP SWAP2 SWAP1 POP JUMP JUMPDEST PUSH2 0x401 DUP2 PUSH2 0x3E7 JUMP JUMPDEST DUP3 MSTORE POP POP JUMP JUMPDEST PUSH0 PUSH1 0x20 DUP3 ADD SWAP1 POP PUSH2 0x41A PUSH0 DUP4 ADD DUP5 PUSH2 0x3F8 JUMP JUMPDEST SWAP3 SWAP2 POP POP JUMP JUMPDEST PUSH0 PUSH1 0x40 MLOAD SWAP1 POP SWAP1 JUMP JUMPDEST PUSH0 PUSH0 REVERT JUMPDEST PUSH0 PUSH0 REVERT JUMPDEST PUSH0 PUSH2 0x43B DUP3 PUSH2 0x38D JUMP JUMPDEST SWAP1 POP SWAP2 SWAP1 POP JUMP JUMPDEST PUSH2 0x44B DUP2 PUSH2 0x431 JUMP JUMPDEST DUP2 EQ PUSH2 0x455 JUMPI PUSH0 PUSH0 REVERT JUMPDEST POP JUMP JUMPDEST PUSH0 DUP2 CALLDATALOAD SWAP1 POP PUSH2 0x466 DUP2 PUSH2 0x442 JUMP JUMPDEST SWAP3 SWAP2 POP POP JUMP JUMPDEST PUSH0 PUSH1 0x20 DUP3 DUP5 SUB SLT ISZERO PUSH2 0x481 JUMPI PUSH2 0x480 PUSH2 0x429 JUMP JUMPDEST JUMPDEST PUSH0 PUSH2 0x48E DUP5 DUP3 DUP6 ADD PUSH2 0x458 JUMP JUMPDEST SWAP2 POP POP SWAP3 SWAP2 POP POP JUMP JUMPDEST PUSH0 PUSH0 REVERT JUMPDEST PUSH0 PUSH0 REVERT JUMPDEST PUSH0 PUSH1 0x1F NOT PUSH1 0x1F DUP4 ADD AND SWAP1 POP SWAP2 SWAP1 POP JUMP JUMPDEST PUSH32 0x4E487B7100000000000000000000000000000000000000000000000000000000 PUSH0 MSTORE PUSH1 0x41 PUSH1 0x4 MSTORE PUSH1 0x24 PUSH0 REVERT JUMPDEST PUSH2 0x4E5 DUP3 PUSH2 0x49F JUMP JUMPDEST DUP2 ADD DUP2 DUP2 LT PUSH8 0xFFFFFFFFFFFFFFFF DUP3 GT OR ISZERO PUSH2 0x504 JUMPI PUSH2 0x503 PUSH2 0x4AF JUMP JUMPDEST JUMPDEST DUP1 PUSH1 0x40 MSTORE POP POP POP JUMP JUMPDEST PUSH0 PUSH2 0x516 PUSH2 0x420 JUMP JUMPDEST SWAP1 POP PUSH2 0x522 DUP3 DUP3 PUSH2 0x4DC JUMP JUMPDEST SWAP2 SWAP1 POP JUMP JUMPDEST PUSH0 PUSH8 0xFFFFFFFFFFFFFFFF DUP3 GT ISZERO PUSH2 0x541 JUMPI PUSH2 0x540 PUSH2 0x4AF JUMP JUMPDEST JUMPDEST PUSH2 0x54A DUP3 PUSH2 0x49F JUMP JUMPDEST SWAP1 POP PUSH1 0x20 DUP2 ADD SWAP1 POP SWAP2 SWAP1 POP JUMP JUMPDEST DUP3 DUP2 DUP4 CALLDATACOPY PUSH0 DUP4 DUP4 ADD MSTORE POP POP POP JUMP JUMPDEST PUSH0 PUSH2 0x577 PUSH2 0x572 DUP5 PUSH2 0x527 JUMP JUMPDEST PUSH2 0x50D JUMP JUMPDEST SWAP1 POP DUP3 DUP2 MSTORE PUSH1 0x20 DUP2 ADD DUP5 DUP5 DUP5 ADD GT ISZERO PUSH2 0x593 JUMPI PUSH2 0x592 PUSH2 0x49B JUMP JUMPDEST JUMPDEST PUSH2 0x59E DUP5 DUP3 DUP6 PUSH2 0x557 JUMP JUMPDEST POP SWAP4 SWAP3 POP POP POP JUMP JUMPDEST PUSH0 DUP3 PUSH1 0x1F DUP4 ADD SLT PUSH2 0x5BA JUMPI PUSH2 0x5B9 PUSH2 0x497 JUMP JUMPDEST JUMPDEST DUP2 CALLDATALOAD PUSH2 0x5CA DUP5 DUP3 PUSH1 0x20 DUP7 ADD PUSH2 0x565 JUMP JUMPDEST SWAP2 POP POP SWAP3 SWAP2 POP POP JUMP JUMPDEST PUSH0 PUSH1 0x20 DUP3 DUP5 SUB SLT ISZERO PUSH2 0x5E8 JUMPI PUSH2 0x5E7 PUSH2 0x429 JUMP JUMPDEST JUMPDEST PUSH0 DUP3 ADD CALLDATALOAD PUSH8 0xFFFFFFFFFFFFFFFF DUP2 GT ISZERO PUSH2 0x605 JUMPI PUSH2 0x604 PUSH2 0x42D JUMP JUMPDEST JUMPDEST PUSH2 0x611 DUP5 DUP3 DUP6 ADD PUSH2 0x5A6 JUMP JUMPDEST SWAP2 POP POP SWAP3 SWAP2 POP POP JUMP JUMPDEST PUSH0 PUSH1 0xFF DUP3 AND SWAP1 POP SWAP2 SWAP1 POP JUMP JUMPDEST PUSH2 0x62F DUP2 PUSH2 0x61A JUMP JUMPDEST DUP3 MSTORE POP POP JUMP JUMPDEST PUSH0 DUP2 SWAP1 POP SWAP2 SWAP1 POP JUMP JUMPDEST PUSH2 0x647 DUP2 PUSH2 0x635 JUMP JUMPDEST DUP3 MSTORE POP POP JUMP JUMPDEST PUSH0 PUSH1 0x60 DUP3 ADD SWAP1 POP PUSH2 0x660 PUSH0 DUP4 ADD DUP7 PUSH2 0x626 JUMP JUMPDEST PUSH2 0x66D PUSH1 0x20 DUP4 ADD DUP6 PUSH2 0x63E JUMP JUMPDEST PUSH2 0x67A PUSH1 0x40 DUP4 ADD DUP5 PUSH2 0x63E JUMP JUMPDEST SWAP5 SWAP4 POP POP POP POP JUMP JUMPDEST PUSH32 0x4E487B7100000000000000000000000000000000000000000000000000000000 PUSH0 MSTORE PUSH1 0x22 PUSH1 0x4 MSTORE PUSH1 0x24 PUSH0 REVERT JUMPDEST PUSH0 PUSH1 0x2 DUP3 DIV SWAP1 POP PUSH1 0x1 DUP3 AND DUP1 PUSH2 0x6C6 JUMPI PUSH1 0x7F DUP3 AND SWAP2 POP JUMPDEST PUSH1 0x20 DUP3 LT DUP2 SUB PUSH2 0x6D9 JUMPI PUSH2 0x6D8 PUSH2 0x682 JUMP JUMPDEST JUMPDEST POP SWAP2 SWAP1 POP JUMP JUMPDEST PUSH2 0x6E8 DUP2 PUSH2 0x431 JUMP JUMPDEST DUP3 MSTORE POP POP JUMP JUMPDEST PUSH0 DUP2 SWAP1 POP SWAP2 SWAP1 POP JUMP JUMPDEST PUSH2 0x700 DUP2 PUSH2 0x6EE JUMP JUMPDEST DUP3 MSTORE POP POP JUMP JUMPDEST PUSH0 DUP2 SLOAD SWAP1 POP SWAP2 SWAP1 POP JUMP JUMPDEST PUSH0 DUP3 DUP3 MSTORE PUSH1 0x20 DUP3 ADD SWAP1 POP SWAP3 SWAP2 POP POP JUMP JUMPDEST PUSH0 DUP2 SWAP1 POP DUP2 PUSH0 MSTORE PUSH1 0x20 PUSH0 KECCAK256 SWAP1 POP SWAP2 SWAP1 POP JUMP JUMPDEST PUSH2 0x73B DUP2 PUSH2 0x635 JUMP JUMPDEST DUP3 MSTORE POP POP JUMP JUMPDEST PUSH0 PUSH2 0x74C DUP4 DUP4 PUSH2 0x732 JUMP JUMPDEST PUSH1 0x20 DUP4 ADD SWAP1 POP SWAP3 SWAP2 POP POP JUMP JUMPDEST PUSH0 DUP2 PUSH0 SHR SWAP1 POP SWAP2 SWAP1 POP JUMP JUMPDEST PUSH0 DUP2 SWAP1 POP SWAP2 SWAP1 POP JUMP JUMPDEST PUSH0 PUSH2 0x77E PUSH2 0x779 DUP4 PUSH2 0x758 JUMP JUMPDEST PUSH2 0x763 JUMP JUMPDEST SWAP1 POP SWAP2 SWAP1 POP JUMP JUMPDEST PUSH0 PUSH2 0x790 DUP3 SLOAD PUSH2 0x76C JUMP JUMPDEST SWAP1 POP SWAP2 SWAP1 POP JUMP JUMPDEST PUSH0 PUSH1 0x1 DUP3 ADD SWAP1 POP SWAP2 SWAP1 POP JUMP JUMPDEST PUSH0 PUSH2 0x7AD DUP3 PUSH2 0x706 JUMP JUMPDEST PUSH2 0x7B7 DUP2 DUP6 PUSH2 0x710 JUMP JUMPDEST SWAP4 POP PUSH2 0x7C2 DUP4 PUSH2 0x720 JUMP JUMPDEST DUP1 PUSH0 JUMPDEST DUP4 DUP2 LT ISZERO PUSH2 0x7F9 JUMPI PUSH2 0x7D6 DUP3 PUSH2 0x785 JUMP JUMPDEST PUSH2 0x7E0 DUP9 DUP3 PUSH2 0x741 JUMP JUMPDEST SWAP8 POP PUSH2 0x7EB DUP4 PUSH2 0x797 JUMP JUMPDEST SWAP3 POP POP PUSH1 0x1 DUP2 ADD SWAP1 POP PUSH2 0x7C5 JUMP JUMPDEST POP DUP6 SWAP4 POP POP POP POP SWAP3 SWAP2 POP POP JUMP JUMPDEST PUSH0 PUSH1 0xC0 DUP3 ADD SWAP1 POP PUSH2 0x819 PUSH0 DUP4 ADD DUP10 PUSH2 0x6DF JUMP JUMPDEST PUSH2 0x826 PUSH1 0x20 DUP4 ADD DUP9 PUSH2 0x6F7 JUMP JUMPDEST DUP2 DUP2 SUB PUSH1 0x40 DUP4 ADD MSTORE PUSH2 0x838 DUP2 DUP8 PUSH2 0x7A3 JUMP JUMPDEST SWAP1 POP PUSH2 0x847 PUSH1 0x60 DUP4 ADD DUP7 PUSH2 0x626 JUMP JUMPDEST PUSH2 0x854 PUSH1 0x80 DUP4 ADD DUP6 PUSH2 0x63E JUMP JUMPDEST PUSH2 0x861 PUSH1 0xA0 DUP4 ADD DUP5 PUSH2 0x63E JUMP JUMPDEST SWAP8 SWAP7 POP POP POP POP POP POP POP JUMP INVALID LOG2 PUSH5 0x6970667358 0x22 SLT KECCAK256 SAR LT 0x2B MSTORE DUP12 0xBF 0x2F 0xDB SWAP4 SELFBALANCE PUSH11 0x8F2962B35347D207E0E785 0x2B CALLCODE EQ SWAP5 0xD6 ADDRESS PREVRANDAO 0xDE 0xB0 0xD8 PUSH5 0x736F6C6343 STOP ADDMOD 0x1E STOP CALLER EXTSTATICCALL 0xD2 0x27 0xE PUSH16 0x23FB5FE9248480C0F4BE8A4E9BD77C3A 0xD0 0xB1 CALLER EXTCODECOPY 0xC6 SIGNEXTEND TSTORE 0xEB 0xC5 GT PUSH1 0x2A 0x2A MOD 0xC2 BLOCKHASH DUP6 0xD8 0xD7 0xC0 CODESIZE 0xBA 0xD8 0x4E 0xDC MSTORE8 PUSH7 0x4C8CE0346CAEAA CALLDATALOAD PUSH17 0xAFEC0E61144DC11C000000000000000000 "
		},
		"gasEstimates": {
			"creation": {
				"codeDepositCost": "442000",
				"executionCost": "infinite",
				"totalCost": "infinite"
			},
			"external": {
				"claimAirdrop(address)": "infinite",
				"run()": "187",
				"splitSignature(bytes)": "infinite",
				"vm()": "infinite"
			}
		},
		"methodIdentifiers": {
			"claimAirdrop(address)": "65f8c6c5",
			"run()": "c0406226",
			"splitSignature(bytes)": "a7bb5803",
			"vm()": "3a768463"
		}
	},
	"abi": [
		{
			"inputs": [],
			"name": "ClaimAirdropScript__InvalidSignatureLenght",
			"type": "error"
		},
		{
			"inputs": [
				{
					"internalType": "address",
					"name": "airdrop",
					"type": "address"
				}
			],
			"name": "claimAirdrop",
			"outputs": [],
			"stateMutability": "nonpayable",
			"type": "function"
		},
		{
			"inputs": [],
			"name": "run",
			"outputs": [],
			"stateMutability": "nonpayable",
			"type": "function"
		},
		{
			"inputs": [
				{
					"internalType": "bytes",
					"name": "sig",
					"type": "bytes"
				}
			],
			"name": "splitSignature",
			"outputs": [
				{
					"internalType": "uint8",
					"name": "v",
					"type": "uint8"
				},
				{
					"internalType": "bytes32",
					"name": "r",
					"type": "bytes32"
				},
				{
					"internalType": "bytes32",
					"name": "s",
					"type": "bytes32"
				}
			],
			"stateMutability": "pure",
			"type": "function"
		},
		{
			"inputs": [],
			"name": "vm",
			"outputs": [
				{
					"internalType": "contract Vm",
					"name": "",
					"type": "address"
				}
			],
			"stateMutability": "view",
			"type": "function"
		}
	]
}